:020000040800F2
:1000000000000320DD650008413300084333000889
:10001000453300084733000849330008000000005A
:100020000000000000000000000000004B3300084A
:100030004D330008000000004F3300085133000822
:100040003166000831660008316600083166000834
:100050003166000831660008316600083166000824
:100060003166000831660008316600083166000814
:100070003166000831660008316600083166000804
:10008000316600085D3300083166000831660008FB
:1000900031660008316600083166000831660008E4
:1000A000316600086D3300083166000831660008CB
:1000B00085330008316600083166000831660008A3
:1000C00031660008316600083166000831660008B4
:1000D0003166000895330008A9330008316600082E
:1000E0003166000831660008316600083166000894
:1000F0003166000831660008316600083166000884
:10010000B93300083166000831660008316600081E
:100110003166000831660008316600083166000863
:10012000E133000831660008C93300083166000871
:100130003166000831660008316600083166000843
:100140003166000831660008316600083166000833
:100150003166000831660008316600083166000823
:100160003166000831660008316600083166000813
:1001700031660008316600083166000800000000A2
:1001800031660008316600083166000831660008F3
:10019000D93300083166000831660008316600086E
:0C01A000000000000000000031660008B4
:1001AC0010B5054C237833B9044B13B10448AFF3A5
:1001BC0000800123237010BD1000002000000000FF
:1001CC00D466000808B5034B1BB103490348AFF3D1
:1001DC00008008BD0000000014000020D466000858
:1001EC0053B94AB9002908BF00281CBF4FF0FF3192
:1001FC004FF0FF3000F072B9ADF1080C6DE904CE90
:10020C0000F006F8DDF804E0DDE9022304B07047E5
:10021C002DE9F047089E04468846002B4BD18A42B4
:10022C00154667D9B2FA82F24AB1C2F1200701FA37
:10023C0002F320FA07F7954047EA030894404FEA87
:10024C00154E230CB8FBFEF71FFA85FC0EFB178826
:10025C0043EA084307FB0CF1994209D9EB1807F163
:10026C00FF3080F01B81994240F21881023F2B44F1
:10027C005B1AA4B2B3FBFEF00EFB103344EA03444A
:10028C0000FB0CFCA44509D92C1900F1FF3380F0BC
:10029C000781A44540F2048102382C4440EA07400F
:1002AC00A4EB0C0400271EB1D4400023C6E9004384
:1002BC003946BDE8F0878B4209D9002E00F0EB805F
:1002CC000027C6E9000138463946BDE8F087B3FA85
:1002DC0083F7002F47D18B4202D3824200F2FA807F
:1002EC00841A61EB030301209846002EE0D0C6E986
:1002FC000048DDE702B9FFDEB2FA82F2002A40F0D4
:10030C008F80491B4FEA154E1FFA85F80127B1FB68
:10031C00FEFC230C0EFB1C1143EA014308FB0CF101
:10032C00994207D9EB180CF1FF3002D2994200F236
:10033C00CD808446591AA3B2B1FBFEF00EFB10140B
:10034C0043EA044408FB00F8A04507D92C1900F136
:10035C00FF3302D2A04500F2B6801846A4EB080485
:10036C0040EA0C409FE7C7F1200CBB4022FA0CFE80
:10037C004EEA030E01FA07F420FA0CF521FA0CF3FD
:10038C004FEA1E482543B3FBF8F92C0C08FB193334
:10039C001FFA8EFA44EA034309FB0AF49C4202FA60
:1003AC0007F200FA07F10BD91EEB030309F1FF303A
:1003BC0080F087809C4240F28480A9F1020973444A
:1003CC001B1BADB2B3FBF8F008FB103345EA03443A
:1003DC0000FB0AFAA24508D91EEB040400F1FF3316
:1003EC006BD2A24569D90238744440EA0940A0FB9B
:1003FC000289A4EB0A044C45C2464B4654D351D057
:10040C00002E69D0B1EB0A0564EB030404FA0CFC72
:10041C00FD40FC404CEA0505C6E90054002747E7BF
:10042C00C2F1200320FA03F7954001FA02F021FAF9
:10043C0003F34FEA154E3843010CB3FBFEF71FFADA
:10044C0085F80EFB173341EA034107FB08F38B4297
:10045C0004FA02F407D9691807F1FF3C2FD28B423A
:10046C002DD9023F2944CB1A81B2B3FBFEF00EFB0F
:10047C00103341EA034100FB08F38B4207D969189A
:10048C0000F1FF3C17D28B4215D902382944C91A06
:10049C0040EA07473BE73746304609E70746E7E6B9
:1004AC001846FBE64145ABD2B8EB020A69EB0E02EB
:1004BC0001381346A4E76046E9E7184695E7674616
:1004CC00D1E781467CE702382C4447E7ACF1020CBB
:1004DC002B442FE7384608E73746E9E6704700BF5C
:1004EC004FF6FF734A1E92B299B110B4017881EAAB
:1004FC001321094C34F9111081EA03239BB21146E4
:10050C000130013A92B20029F0D118465DF8044B43
:10051C0070471846704700BFEC660008024B4FF658
:10052C00FF721A80704700BF2C0000204B1E9BB23C
:10053C00A9B130B40B4C2588017881EA15210A4AFF
:10054C0032F9112082EA0522228019460130013B42
:10055C009BB20029EED1034B188830BC7047014B7D
:10056C00188870472C000020EC66000884B08DE8D9
:10057C000F00C36843F01003C36004B07047000061
:10058C0010B5054C204605F039FE2268D36823F0DF
:10059C000403D36010BD00BFEC84002008B5074BEA
:1005AC0000221A6006480268D36843F00403D36043
:1005BC004FF40052034905F0CDFD08BD300000207A
:1005CC00EC840020CC420020014B1870704700BF17
:1005DC0000000020B1F5005F00D97047F8B50E4659
:1005EC000446FFF7CDFF0120FFF7EEFF35463246FC
:1005FC002146354806F03CF80024344B1C60344846
:10060C0003685C62214605F05BFA324F0122082137
:10061C00384603F015FF22464FF48071384603F03C
:10062C000FFF224607E02848835C93FAA3F36FEA96
:10063C001363835401329542F5D8274B5B6844F61B
:10064C00FF22934222D0B3F5964F16D34AF6C772C7
:10065C00934203D04EF65F22934212D106EB8603EF
:10066C0006EB43031D4A82FB03231B121A4A116833
:10067C0003F57A73CB62D36016E044F24F62934277
:10068C0004D09F21164801F0D7F80DE06E2303FB30
:10069C0006F3144AA2FB03230F49086842F21072B6
:1006AC0002EB5323C362CB600B48036800225A62EF
:1006BC001A6922F001021A6104F06EFF32460249F7
:1006CC00094805F001FDF8BDCC6200203000002087
:1006DC002C8500200018024034830020AD8BDB6891
:1006EC000C6A00085917B7D1E8850020014B18781F
:1006FC00704700BF0000002010B5054C204604F0E8
:10070C0034FF2268136923F00103136110BD00BF8D
:10071C00AC85002008B50F4B1B680C2B17D9FFF7C5
:10072C002FFF0520FFF750FF0A4B1868002308E045
:10073C000949CA5C92FAA2F26FEA1262CA540133F6
:10074C009BB28342F4D3034B01221A7108BDFFF70D
:10075C0025FFFBE730000020CC42002010B50E48EE
:10076C0004F003FF00210D4805F0C6F90C4C0022E3
:10077C000821204603F064FE01224FF480712046CC
:10078C0003F05EFE074805F027FC0520FFF71CFF71
:10079C00FFF704FF10BD00BF348300202C85002020
:1007AC0000180240E88500200E4B1B6813F0100F58
:1007BC0000D1704710B582B000240194019B094B05
:1007CC001A6801925B680193FFF796FF064803686D
:1007DC005C625C621A6922F001021A6104F0DCFEB0
:1007EC0002B010BD00100140AC8500200268124B15
:1007FC009A4200D0704710B5104804F0B6FE0023A2
:10080C0001E000BF0133B3F57A6FFADB00210C482D
:10081C0005F072F90520FFF7D7FE0A4C00220821DB
:10082C00204603F00DFE01224FF48071204603F0A8
:10083C0007FEFFF7B3FE10BD0044004034830020D8
:10084C002C8500200018024010B503682D4A9342F5
:10085C0003D02D4A93421FD010BD2C4B1B68002295
:10086C005A62FFF749FF3A2002F092FE252002F06F
:10087C008FFE274C204605F013FC01F02FFA61681F
:10088C00204600F017FE252002F076FE3A2002F0FA
:10089C0073FEFFF783FEDFE71E4804F066FE0021BF
:1008AC001D4805F029F9112002F072FE262002F0F5
:1008BC006FFE1A4C204605F0F3FB194B1A6A42F4F2
:1008CC0000321A621A6A22F400321A6201F026FA15
:1008DC006168204600F0EEFD262002F04DFE11204E
:1008EC0002F04AFE0F4C00220821204603F0A8FD1E
:1008FC0001224FF48071204603F0A2FDFFF74EFE5B
:10090C00AAE700BF0010014000440040AC85002065
:10091C00EC840020348300202C850020E885002006
:10092C00003802400018024008B502680C4B9A428D
:10093C0000D008BD0320FFF747FE0A4B1B680022BE
:10094C005A62FFF7D9FE084B1B685B68C3F500536E
:10095C00064A1360FFF714FEFFF7DCFEE9E700BF61
:10096C0000100140AC850020EC83002030000020FA
:10097C0070B58379154C2370C37963700379A370B8
:10098C004379E37001232371058905F10B06B6B297
:10099C002B1D63711B12A3710368E37103681B0A9F
:1009AC00237203681B0C637203681B0EA37205F1A0
:1009BC000A0189B2601CFFF793FDA0550136000AAD
:1009CC00A05505F10D0080B270BD00BF580000208D
:1009DC0070B582B015461E4642F20C03994200D9FE
:1009EC001946494C0A460146204605F04CFEA278B1
:1009FC00E178464B1A71DE719D71597100211960B5
:100A0C001981CB2A46D00FD84A2A31D05C2A28D05B
:100A1C000A2A76D13E4B00221A703C4C2046FFF736
:100A2C00A7FFA083002360E0EA2A53D0ED2A55D01B
:100A3C00E02A66D1344BDC791A7A44EA02245A7AD9
:100A4C0044EA02449B7A44EA0364304B9C610021E3
:100A5C00D3E90423A2428B4127DB2C4B9A691A6001
:100A6C00DBE72A4B997A284AD17201221A81D4E702
:100A7C00254B0122DA7200221A735A739A73CA2117
:100A8C00D973E7211974022159749A741F4B0822E7
:100A9C001A81C2E71D4B4FF0FF304FF0FF31C3E915
:100AAC0004011C4B01221A70B7E71B4D4FF4706206
:100ABC000021284605F000FE220A80320024120391
:100ACC002346A5F5807001F0EDFC104B9A691A6174
:100ADC005C61C2E7114B01221A709EE7104B012298
:100AEC001A709AE700BF01339BB2B3F5AF7FF9D30D
:100AFC00064B998B0023009302230522024802F037
:100B0C0049F902B070BD00BF580000203800002029
:100B1C00AC220020AB22002063010020AA2200207E
:100B2C00AD220020014B9872704700BF38000020A6
:100B3C0000F17843B3F5804FC0F09A80A3F5804361
:100B4C00B3F5804FC0F0968000F17843A3F50043D5
:100B5C00B3F5804FC0F0908000F17843A3F540438B
:100B6C00B3F5804FC0F08A8000F1774303F57F0323
:100B7C00B3F5803FC0F0848000F1774303F57E032A
:100B8C00B3F5003F7ED300F1774303F57C03B3F557
:100B9C00003F79D300F1774303F57A03B3F5003FB7
:100BAC0074D300F1774303F57803B3F5003F6FD3AB
:100BBC0000F1774303F57603B3F5003F6AD300F1F8
:100BCC00774303F57403B3F5003F65D300F1774326
:100BDC0003F57203B3F5003F60D3A0F10163B3F5E5
:100BEC00804F5DD3A3F58043B3F5804F5AD3A0F16A
:100BFC000163A3F50043B3F5804F55D3A0F1016316
:100C0C00A3F54043B3F5804F50D300F1774303F580
:100C1C006F03B3F5803F4BD300F1774303F56E03BD
:100C2C00B3F5003F46D300F1774303F56C03B3F5FE
:100C3C00003F41D300F1774303F56A03B3F5003F5E
:100C4C003CD300F1774303F56803B3F5003F37D38A
:100C5C0000F1774303F56603B3F5003F32D300F19F
:100C6C00774000F56400B0F5003F2DD21620704798
:100C7C000020704701207047022070470320704706
:100C8C0004207047052070470620704707207047E6
:100C9C0008207047092070470A2070470B207047C6
:100CAC000C2070470D2070470E2070470F207047A6
:100CBC001020704711207047122070471320704786
:100CCC00142070471520704717207047032811D93E
:100CDC000C2812D00D2813D00E2814D00F2815D0A4
:100CEC00042816D0102802D04FF4003070474FF46F
:100CFC00803070474FF4804070474FF4804070470D
:100D0C004FF4804070474FF4804070474FF4804060
:100D1C0070474FF48030704770B506460D46144648
:100D2C0003F09CF82046FFF7D1FF204401380D4B0F
:100D3C0018605C6063190B4A51688B420FD90B1B0E
:100D4C009B0856F823200023022003F0DBF830B96F
:100D5C00044A53680433536012689342EAD303F095
:100D6C0095F870BD6420002070B506460D4603F062
:100D7C0075F82846FFF7DCFE0446A819FFF7D8FEE5
:100D8C00001B431C1948002282600222826104610C
:100D9C00436100F11C01083003F078F918BB144BC7
:100DAC001A6822F480621A601A6822F400721A60BF
:100DBC001A6842F480521A601A6822F480521A603F
:100DCC001A6842F400621A601A6822F400621A600F
:100DDC001A6842F400721A601A6842F480621A604F
:100DEC0003F054F870BD03F051F8FBE764200020C9
:100DFC00003C024030B4134605E09C1AA40853F89A
:100E0C00045B40F8245054189C42F6D830BC704710
:100E1C00064B1B6813F0010F04D1044A136843F00E
:100E2C0001031360024B1868704700BF10E000E02C
:100E3C002CBB002038B50446FFF7EAFF0546B4F199
:100E4C00FF3F00D00134094B1B6813F0010F06D192
:100E5C00064A136843F00103136000E000BFFFF77C
:100E6C00D7FF401BA042F9D338BD00BF10E000E013
:100E7C00C2B110B483B00C4B186059609A60002258
:100E8C00DA600A4BDA6892B2ADF80620BDF806209B
:100E9C005A6842F040025A600278DA6003B05DF89A
:100EAC00044B7047704700BF842000200034014081
:100EBC0010B56424064B187C30B12CB1013CA4B2A3
:100ECC000120FFF7B7FFF5E7B0FA80F0400910BD3D
:100EDC008420002008B530B901224FF40051054898
:100EEC0003F0AEFA08BD00224FF40051014803F0A4
:100EFC00A7FAF7E70008024010B5094C0523237543
:100F0C0000236375032323740120FFF7E3FF022200
:100F1C0004F58C7104F11400FFF7AAFF10BD00BF9B
:100F2C008420002010B50446FFF7C2FFFFF7E4FF52
:100F3C00FFF7BEFF094B1B7813F0010F06D02CB145
:100F4C00013CA4B20120FFF775FFEFE7034B1878C3
:100F5C0000F0010080F0010010BD00BFD082002025
:100F6C00F8B507460E4615460A20FFF7DBFF114C75
:100F7C0006232375330C6375330AA375E6752A466D
:100F8C00B5F5807F28BF4FF48072A4F81C22394637
:100F9C0004F1180005F077FB042323740120FFF7FC
:100FAC0099FF012204F58C71A1F58270FFF760FFA7
:100FBC00F8BD00BF842000202DE9F04107460E4605
:100FCC001546984621F0FF04641A04F58074944287
:100FDC000BD392B2FFF7C4FFB8F1000F01D1BDE8FB
:100FEC00F0810A20FFF79EFFF9E7A2B2FFF7B8FFE6
:100FFC002D1BCDB1B5F5807F0AD94FF48072A119A4
:10100C003819FFF7ADFF04F58074A5F58075F0E78E
:10101C00AAB2A1193819FFF7A3FFB8F1000FDED05F
:10102C000A20FFF77FFFDAE7B8F1000FD7D00A20CC
:10103C00FFF778FFD3E700002DE9F04107460D4696
:10104C0090461E460A20FFF76DFF0E4C03232375B6
:10105C002B0C63752B0AA375E575C4F82082062347
:10106C0023740120FFF736FFD4F8202204323946CE
:10107C0004F11400FFF7FCFE0EB9BDE8F081FFF798
:10108C0017FFFAE784200020F8B511B900231846A1
:10109C00F8BD05460F460A20FFF744FF4FF4827255
:1010AC00FF21154805F008FB0026BE4221D2134C47
:1010BC00062323752B0C63752B0AA375E5754FF46A
:1010CC008073A4F81C32042323740120FFF702FF61
:1010DC00012204F58C7104F11400FFF7C9FE0A20FB
:1010EC00FFF720FF03460028D1D005F580750136A7
:1010FC00DBE70123CBE700BF9820002084200020F1
:10110C0008B530B901224FF48071054803F098F905
:10111C0008BD00224FF48071014803F091F9F7E704
:10112C000020024038B50020FFF7D4FE224B1B7C78
:10113C00013B052B3CD8DFE803F0031519213337AD
:10114C001D4C012020751D4B1B78637502252574E1
:10115C00FFF7C0FE2A4604F58C7104F11400FFF76A
:10116C0087FE38BD144B00221A74FAE7124B93F821
:10117C001911124A117000221A74F2E70E4C022354
:10118C002375052323740120FFF7A4FEB4F81C2259
:10119C00043204F58C7104F11400FFF769FEE0E7EA
:1011AC00054B00221A74DCE7034B00221A74D8E7B3
:1011BC00014B00221A74D4E784200020D082002036
:1011CC0008B5184B9B6813F0010F15D0164B1B7C00
:1011DC00062B12D0134BD968134B5A68DB68D154C9
:1011EC00114AD3680133D3609268934211D20E4AEC
:1011FC001268D25C0B4BDA6008BD0A4BDB68DBB2C1
:10120C00094AD268032AEBD9043A074949688B5436
:10121C00E6E7044A536823F040035360FFF782FF6C
:10122C00EAE700BF00340140842000202DE9F0479C
:10123C008EB000240094674B1A6B42F002021A63C2
:10124C001A6B02F002020092009A01941A6B42F09F
:10125C0008021A631A6B02F008020192019A0294B6
:10126C001A6B42F004021A631A6B02F00402029227
:10127C00029A03941A6B42F001021A631A6B02F081
:10128C0001020392039A04941A6B42F480721A635B
:10129C001A6B02F480720492049A05941A6B42F051
:1012AC0080021A631A6B02F080020592059A06946A
:1012BC001A6B42F040021A631A6B02F0400206925B
:1012CC00069A07941A6B42F020021A631A6B02F00A
:1012DC0020020792079A08941A6B42F010021A63C4
:1012EC001B6B03F010030893089BDFF8FCA022464D
:1012FC004FF40051504603F0A3F8374F01224FF43E
:10130C008071384603F09CF8DFF8E09001224FF42E
:10131C008071484603F094F822460821484603F0B1
:10132C008FF840F6F363099303250A950B9409A9EA
:10133C00384602F0F7FE0C2309934FF00208CDF863
:10134C0028800B940C9505260D9609A9384602F0B9
:10135C00E9FE64230993CDF828800B940C950D9627
:10136C0009A91E4802F0DEFE4FF48473099301268E
:10137C000A960B940C9409A9484602F0D3FE40231C
:10138C000993CDF828800B940C9409230D9309A98B
:10139C00134802F0C7FE4FF4807309930A960B941E
:1013AC000C9409A9384602F0BDFE4FF4005709977A
:1013BC000A960B940C9409A90A4802F0B3FE0997FB
:1013CC000A960B940C9509A9504602F0ABFE0EB090
:1013DC00BDE8F087003802400020024000100240B7
:1013EC00001C024000080240000C024000180240A1
:1013FC0000B583B0194B4FF400525A625A6A22F46A
:10140C0000525A62002201925A6C42F400525A6401
:10141C005B6C03F400530193019B114B4FF4057269
:10142C001A601A6842F480721A601A6842F040021C
:10143C001A600B4B9B6813F0020FFAD0084B9B6899
:10144C0013F0800FFAD100220221542002F060F830
:10145C00542002F091F803B05DF804FB0038024010
:10146C000034014010B504460368B3F1804F04D03A
:10147C0022680C4B9A4211D010BDFFF781F8FFF790
:10148C003BF9094B1B685B68C3F50053074A1360B3
:10149C00074B02221A70FFF73DF9E9E7FFF75EF9F7
:1014AC00EAE700BF00440140EC830020300000203C
:1014BC006885002038B504460D460368594A9342A6
:1014CC0006D002F58062934202D003F04FFF01E098
:1014DC0003F05CFF544B984277D022D8534B984280
:1014EC0000F0928003F5370303F5D85398423FD1AF
:1014FC002268536943F4006353612268D36843F450
:10150C000043D3604A4B9D427BD02268D36823F4BE
:10151C000043D36003230421226843EA0113936040
:10152C0026E0444B984234D0434B984220D1226859
:10153C00536943F400635361404B9D420DD03C4BC7
:10154C009D4216D03E4B9D421BD02268D36823F49B
:10155C000043D3600A23092106E02268D36843F4D0
:10156C000043D36000230121226843EA01139360F6
:10157C0038BD2268D36843F40043D36000230421B0
:10158C00F2E72268D36843F40043D36000230221BE
:10159C00EAE72268536943F4006353612268D36815
:1015AC0043F40043D360224B9D420BD02268D36896
:1015BC0023F40043D36006230821226843EA011375
:1015CC009360D5E704230321F7E72268536943F4BA
:1015DC00006353612268D36843F40043D360144B17
:1015EC009D420BD02268D36823F40043D3600823B8
:1015FC000421226843EA01139360B9E70723012110
:10160C00F7E70623012187E72268536943F4006357
:10161C0053612268D36823F40043D36023683022DB
:10162C009A60A5E70010014040A5AE0280C3C90135
:10163C00C0C62D0000BD010500D8B805001BB700C1
:10164C00808D5B0008B5002211464FF0FF3001F091
:10165C005FFF00220121302001F05AFF00220221FD
:10166C00542001F055FF00220521112001F050FFFC
:10167C00002205213A2001F04BFF002201213820E5
:10168C0001F046FF00220121392001F041FF002228
:10169C000621192001F03CFF002204211C2001F03E
:1016AC0037FF00220921252001F032FF00220321FF
:1016BC00262001F02DFF08BD80B500AF01F0BAFE69
:1016CC00074802F0E8FE074B1B68074A1360074AFD
:1016DC001360074A126882F30888984780BD00BFE0
:1016EC007083002004C000088483002088830020BD
:1016FC0000C0000808B5024802F0CDFE08BD00BFCE
:10170C00708300202DE9F041ADF5805D84B04FF47D
:10171C000022002304A800F05FFF064690B19DF85C
:10172C0010409DF8113044EA03249DF8123044EA2D
:10173C0003449DF8133044EA0364631EB3F5FC1FA5
:10174C0006D3002630460DF5805D04B0BDE8F0816F
:10175C000025ADF80E50FEF7E1FE1EE0344B0022E2
:10176C001A80200AE7B2002103ABADF80C100093ED
:10177C0002230DF10E0207EB003000F0F5FB2C4BB1
:10178C001A88BDF80E309A4219D00026DAE7E1B279
:10179C0004A8FEF7CBFE264B1880A542E1D22A0AFC
:1017AC0080321203002304A800F016FF0028D5D0C5
:1017BC0005F58075AC42EAD34FF48071E8E71D491A
:1017CC002046FFF7D1FA002506E03946194A2A448B
:1017DC0004A8FFF7A1FA4546A5420DD22A0A803289
:1017EC001203002304A800F0F7FE05F58078A0454D
:1017FC00EBD84FF48071E9E7FEF790FE00250CE082
:10180C000C4A2A44042102A8FFF7F4FA042102A886
:10181C00FEF78CFE064B18800435A542F0D3044B22
:10182C001A88BDF80E309A428CD000268AE700BF89
:10183C00A8220020FCBF0008FEE7000030B587B0EE
:10184C00054603F093FD044603F0A0FD002301932D
:10185C00029303930493059306A941F8183D01A83C
:10186C0003F0A4FD049B03B164002B68B3F1804F1B
:10187C0002D0002007B030BD064B5B6833B9064878
:10188C00A0FB0430800AF5D00138F3E7A32103480C
:10189C00FFF7D2FFAC85002089D35127206A0008BE
:1018AC0000B583B000230093394A116B41F4001149
:1018BC001163116B01F40011009100990193116BEC
:1018CC0041F480011163126B02F480020192019ABF
:1018DC003048314A0260436080228260C3604FF41A
:1018EC008062026143618361C361036204224262CC
:1018FC0003228262C362036301F040FF002842D1DD
:10190C0000220121382001F003FE382001F034FEC2
:10191C00002201210B2001F0FBFD0B2001F02CFE1D
:10192C0000220121102001F0F3FD102001F024FE13
:10193C0000220121112001F0EBFD112001F01CFE11
:10194C00002201213A2001F0E3FD3A2001F014FEBF
:10195C0000220121462001F0DBFD462001F00CFEA7
:10196C00002201213C2001F0D3FD3C2001F004FEBB
:10197C0000220121442001F0CBFD442001F0FCFDAC
:10198C0003B05DF804FB40F2DF310448FFF754FF6D
:10199C0000380240D482002010640240206A000803
:1019AC0000B595B03448354B0360012343600023E8
:1019BC0083604722C2600361436103F09FFF0028EC
:1019CC003BD114A94FF4805341F8103D2A4803F041
:1019DC00F0FD002836D1284803F0A9FF002836D1A5
:1019EC0000230E930F930EA9234804F0B9F8002896
:1019FC0032D16023079324230893002209920A9280
:101A0C000B920C920D9207A91B4803F0DBFF40BB15
:101A1C000023009301930293039304934FF4005219
:101A2C00059206936946144804F0C3F8F0B91248BD
:101A3C0001F0D8FA15B05DF804FB4FF44C71104866
:101A4C00FFF7FAFE40F236310D48FFF7F5FE40F293
:101A5C003B310B48FFF7F0FE40F242310848FFF7EC
:101A6C00EBFE40F24E310648FFF7E6FE40F25A31EB
:101A7C000348FFF7E1FE00BF2C8500200000014069
:101A8C00206A000810B586B0194C4FF080432360D3
:101A9C0000236360A3602046FFF7D0FEE0604FF4A4
:101AAC0080732361204603F029FF90B906A94FF4F7
:101ABC00805341F8103D0E4803F07BFD70B90023B4
:101ACC000093019369460A4804F04AF858B906B0E5
:101ADC0010BD40F26F310748FFF7AEFE40F2753192
:101AEC000448FFF7A9FE4FF45F710248FFF7A4FE0C
:101AFC00AC850020206A000808B50A480A4B036030
:101B0C004AF6C77343600023836040F2E732C26039
:101B1C00036103F0F3FE00B908BD40F28D310348B8
:101B2C00FFF78AFE3483002000440140206A00083D
:101B3C0000B589B01A481B4B036010234360022385
:101B4C0083600022C26002614FF4002242610122D4
:101B5C008261C2614FF480514162E0218162802137
:101B6C00C1624FF40061016343634FF48061816390
:101B7C0080F83C200493042205920693079300936B
:101B8C000193029303936A4604A902F08AFC10B9EC
:101B9C0009B05DF804FB40F236410348FFF74CFEF8
:101BAC00AC840020600000A0206A000808B506483C
:101BBC00064B036001F034FD00B908BD40F27B21F7
:101BCC000348FFF739FE00BF7C8300200030024041
:101BDC00206A000800B595B0002201922F4B196CB9
:101BEC0041F0805119641B6C03F080530193019BED
:101BFC0002922B490B6823F4404343F480430B605F
:101C0C000B6803F440430293029B0A2308930123BD
:101C1C000B9310210C910D9302230E930F9208221B
:101C2C0010925A22119212930423139308A803F0D2
:101C3C00CBF820BB03F088F830BB0F2303930221B1
:101C4C000491002305934FF480530693079303A844
:101C5C0003F0DAFAE8B903F083FB124BA3FB003074
:101C6C00800901F0B3FC042001F0C6FC00221146EF
:101C7C004FF0FF3001F04CFC15B05DF804FB40F266
:101C8C0051210948FFF7D8FD4FF416710648FFF7AC
:101C9C00D3FD40F266210448FFF7CEFD0038024028
:101CAC0000700040D34D6210206A000808B5084847
:101CBC00084B0360012343604FF47A63836002F0A6
:101CCC00C5FB00B908BD40F287210348FFF7B4FDFE
:101CDC007083002000300040206A000808B50B48D3
:101CEC000B4B03600B4B436000238360C3600361A9
:101CFC00042242618361C36104F06EF900B908BD2E
:101D0C0040F29E310448FFF797FD00BFEC840020A1
:101D1C000010014068890900206A000808B50D48C8
:101D2C000D4B03600D4B4360002383604FF4005256
:101D3C00C2600361082242614FF400728261C36188
:101D4C0004F079F900B908BD40F2AF310448FFF74F
:101D5C0073FD00BFE885002000440040688909003D
:101D6C00206A0008F0B58DB001F09EFBFFF732FF42
:101D7C00FFF75CFAFFF794FDFFF7B0FFFFF710FEDB
:101D8C00FFF780FEFFF7B8FEFFF732FBFFF7C6FF49
:101D9C00FFF7CEFEFFF70AFFFFF754FC0020FFF71A
:101DAC00AFF9002000F060F9504802F02FFC00F071
:101DBC0039FD00F005FE00F029F900283ED04C4B0F
:101DCC0001229A701020FEF7ADFE4A4E4FF40052DD
:101DDC004949304604F0BEF96C4606F110050FCDAA
:101DEC000FC40FCD0FC495E80F0084E80F0096E8E0
:101DFC000F00FEF7BBFBFFF70BF804463C4BDB7800
:101E0C0003BB3B4B9B785BBB394B5B79002B45D1C0
:101E1C00374B1B79002B44D1384B1B78002BEDD062
:101E2C00354B1B78B12B46D0344B00221A70FEF781
:101E3C005DFC0528E2D1FEF7B1FBDFE70820FEF7D9
:101E4C0071FEC2E72A4B0022DA7080214FF48530F4
:101E5C00FFF71AF900F056F80120FEF763FED0E701
:101E6C00234D0026AE701020FEF75CFE012000F022
:101E7C00B9F8FFF747FC0746304600F0B3F82B796A
:101E8C0023B93FB11120FEF74DFEBDE7FEF7C0FFB1
:101E9C000446F6E71220FEF745FEB5E701F084FB99
:101EAC00B6E7FEF7B5FF001B42F210739842B3D9A8
:101EBC00FFF702FCB0E7124B19688B1E0E48C55C8D
:101ECC004B1EC35C45EA0325033989B20130FEF78A
:101EDC0007FBA842A8D10A4B1988002300930523BD
:101EEC000222054800F056FF9EE700BFAC8400209C
:101EFC00A8220020EC840020CC42002034000020DA
:101F0C003000002038B5002404E00134E004002146
:101F1C0000F0EAFB40F2FE739C42F6D900240AE082
:101F2C0000252946204600F061FC2946204600F099
:101F3C00FDFC0134A4B2B4F5006F0CD2084B234461
:101F4C009B7A002BECD0074B23449B7A0BB90025D2
:101F5C00E7E70125E5E700F057FC00F0F7FC38BD9A
:101F6C0018AF00200CA700202DE9F84F06460F46AD
:101F7C0093469846002529E0330B43EA07533C0B64
:101F8C00C6F30B0913F1800044F100010B03DFF8D9
:101F9C0050A0020343EA1053504600F01DFBC9F554
:101FAC008054444528BF4446A4B222460AEB09019A
:101FBC000BEB050004F05CFB2544ADB2A2B2002390
:101FCC00B6185F41A8EB04081FFA88F8B8F1000FA7
:101FDC00D2D10A9B03B11D800120BDE8F88F00BF50
:101FEC002886002010B5084C2070AA2363700221AB
:101FFC002046FEF775FA6080012304224FF44071ED
:10200C002046FEF7D9FF10BDB022002038B50A4C8F
:10201C0000232360012304224FF440712046FFF774
:10202C000BF8658802212046FEF75AFA854201D04A
:10203C00002038BD2078FCE7B0220020704700005B
:10204C0008B5002908BFB0F1804F05D2054B00221E
:10205C001A70044B187808BDFFF7F0FF014B0122F2
:10206C001A70F6E7B422002008B530B900224FF4FC
:10207C000051054802F0E4F908BD01224FF400516B
:10208C00014802F0DDF9F7E7000C02402DE9F04FB2
:10209C0083B001921F4690F82030012B00F0A980EC
:1020AC000446012380F8203090F82130DBB2022B5B
:1020BC0000F0A1804368102B10D04FF0004A02238F
:1020CC0084F821300B888A884D88A16B01FB05258B
:1020DC00E26A02FB05354FF0000824E04FF0E04ABD
:1020EC00EDE74AF4003300221A70EAB21A70C5F315
:1020FC0007221A70C5F307421A70302389F8003092
:10210C0094F83C30012B55D0DFF8F4903346019A0B
:10211C005146484601F0C4FB384A0021484601F0BC
:10212C0082FC013F0135002F5AD0E26A236B03FB7E
:10213C0002F3AB4254D908F10108666A06FB08F6B3
:10214C004AF48039002389F80030636AB3F5007FC4
:10215C0010D8E26A236B03FB02F3B3F5803FC0D2C5
:10216C004AF4003300221A70EAB21A70C5F307223F
:10217C001A70C2E7E26A236B03FB02F3B3F5803FEC
:10218C000AD24AF4003300221A701A70EAB21A709A
:10219C00C5F307221A70B0E74AF4003300221A7014
:1021AC001A70EAB21A70C5F307221A70C5F3074207
:1021BC001A70A2E7FEF72CFE8346204602F04DFA79
:1021CC00402807D0FEF724FEA0EB0B000A28F4D918
:1021DC0003200BE0002389F80030BFF34F8F93E707
:1021EC00012384F82130002084F8200003B0BDE8DE
:1021FC00F08F0220FAE70220F8E700BF40420F0000
:10220C00D48200202DE9F04F83B00092984690F8CC
:10221C002030012B00F0B6800446012380F82030DA
:10222C0090F82130DBB2022B00F0AE804368102B0B
:10223C0012D04FF00046022384F821300B888A8894
:10224C004D88A16B01FB0525E26A02FB0535636A2B
:10225C0001934FF0000927E04FF0E046EBE746F41E
:10226C00003300221A70EAB21A70C5F307221A70F2
:10227C00C5F307421A7046F4803A30238AF80030CE
:10228C0094F83C30012B60D0DFF804A13B46009A57
:10229C003146504601F004FB3C4A0021504601F007
:1022AC00C2FB08F1FF380135B8F1000F61D0E26ACA
:1022BC00236B03FB02F3AB425BD909F10109A76A5B
:1022CC0007FB09F7636AB3F5007F14D846F4803333
:1022DC0050221A70E26A236B03FB02F3B3F5803FC2
:1022EC00BDD246F4003300221A70EAB21A70C5F35C
:1022FC0007221A70BFE746F4803300221A70E26A94
:10230C00236B03FB02F3B3F5803F0DD246F400338D
:10231C000199CAB21A70C1F307221A70EAB21A7084
:10232C00C5F307221A70A6E746F400330199CAB226
:10233C001A70C1F307221A70EAB21A70C5F3072299
:10234C001A70C5F307421A7095E7FEF761FD8346D4
:10235C00204602F082F9402807D0FEF759FDA0EB89
:10236C000B000A28F4D9032009E000238AF8003076
:10237C008AE7012384F82130002084F8200003B080
:10238C00BDE8F08F0220FAE70220F8E740420F0088
:10239C00D48200202DE93008002908BFB0F1804F0D
:1023AC0001D30B4800210B4C04EA000B4FEA1B3401
:1023BC00148020F060440025E30C43EA45339380FD
:1023CC00430F43EAC1035380BDE83008704700BF98
:1023DC0000F0FF3FFFFF0700F8B506460F46154615
:1023EC00012406E02A4630463946FFF7D3FF013474
:1023FC00A4B26A88AB8803EB82239C420EDC084BA8
:10240C0023449B7A002BF2D116F5002647F10007E6
:10241C0030463946FFF714FE0028E3D0F8BD00BF64
:10242C0018AF002030B583B010F5002441F1000541
:10243C0020462946FFF704FE18B12046294603B072
:10244C0030BD6A4620462946FFF7A4FFBDF802308E
:10245C00BDF8044004EB8324E4040025EDE7000000
:10246C0030B583B00D4C4FF400720021204604F0BF
:10247C0023F90B4DAB692360214601A800F0CAFA81
:10248C0001AA05F11C01204600F01EFC012801D018
:10249C0003B030BD2268AA61FAE700BF0C97002098
:1024AC002C9600202DE9F04383B0054617461E46B6
:1024BC00002409E004EB440305EB44214148184493
:1024CC0000F0A8FA0134E4B2072CF3D94FF480627F
:1024DC0029463D4801F0B5F88146DFF8E880C8F898
:1024EC0018003A4C4FF400720021204604F0E4F836
:1024FC00C4F80090214608F11C0000F08BFA02246D
:10250C00002C54D038463146FFF79AFD002851D1A3
:10251C006A4638463146FFF73DFF6A463846314633
:10252C00FFF75AFF2A4B1B78002B47D101232A4671
:10253C006946284802F068F90446C0B1BDF80400A9
:10254C00BDF8023000EB8320002180B200F0EEF9E0
:10255C0000F0FCF938463146FFF764FF1C4B1B7842
:10256C0013B103B0BDE8F08307460E46C8E701235C
:10257C00144A6946174802F0C6FA04460028BFD030
:10258C00BDF80400BDF8023000EB8320002180B2BE
:10259C0000F0CCF900F0DAF938463146FFF742FF8B
:1025AC000B4B1B78002BDCD107460E46A8E73846B0
:1025BC003146D6E74FF0FF300146D2E73846314678
:1025CC00CFE700BF2C9600207C8300200C970020C6
:1025DC00B4220020AC840020F0B585B00546164628
:1025EC001F4602AA30461946FFF7D4FE012401E02B
:1025FC000134A4B2BDF80A20BDF80C3003EB8223E1
:10260C009C420EDC344B23449B7A002BF0D116F504
:10261C00002647F1000702AA30463946FFF7BAFEFA
:10262C00E6E72E4E01232A4602A93046FFF72EFD7F
:10263C002B4C0123224602A93046FFF7E3FD4FF451
:10264C0080622946274800F0FCFFA36983423ED0F4
:10265C00FFF706FF012815D00024072C25D805EB21
:10266C004426314601A800F0D5F904EB440101AA37
:10267C001B4B1944304600F027FB03280DD00134C6
:10268C00E4B2EAE74FF480622946164800F0D9FF1D
:10269C00A3698342E0D101201AE04FF48052FF215C
:1026AC00284604F009F8002012E04FF48062294615
:1026BC000C4800F0C6FF0A4B9B6983420AD04FF4CA
:1026CC008052FF21284603F0F7FF002000E0012094
:1026DC0005B0F0BD0120FBE718AF0020AC84002052
:1026EC002C9600207C83002000B583B06A46FFF74F
:1026FC0051FEBDF80430B3F5006F02D303B05DF8A2
:10270C0004FB6946054802F0BDFA0028F6D000210A
:10271C00BDF8040000F06AF8F0E700BFAC840020BC
:10272C0070B582B06A4600200021FFF733FE69467F
:10273C00224802F0A7FA08B102B070BD6A46002028
:10274C000021FFF727FE1E4C4FF400621D49204666
:10275C0003F08EFF012322466946184802F054F814
:10276C000028E9D100240AE004EB4403144901EBEE
:10277C0044211548184400F04DF90134E4B2072CFB
:10278C00F2D90F4C4FF480622146104800F059FFEB
:10279C0006460D4DA8614FF400720021204603F04F
:1027AC008BFF2660214605F11C0000F033F9012354
:1027BC002A466946014802F0A6F9BDE7AC84002020
:1027CC00C032002022AF00202C9600207C830020F9
:1027DC0010B5054C4FF400620121204603F06CFF4C
:1027EC00012304F80A3C10BD22AF0020054B034422
:1027FC009B7A8B4204D0034B1844817201221A70CD
:10280C00704700BF18AF002008B5054B1B7803B903
:10281C0008BDFFF785FF024B00221A70F8E700BFD6
:10282C0018AF002030B585B002AA00200021FFF7B8
:10283C00B1FD01232D4A02A92D4801F028FF18B142
:10284C00FFF7C6FF05B030BD01232A4A02A928486C
:10285C0002F091F810B1FFF7BBFFF3E7234C4FF4F4
:10286C0000622146244803F003FF4FF480622146A6
:10287C00224800F0E6FE1F4B9B698342E2D0FFF733
:10288C00EFFD012816D00024072C21D8174D05EB9D
:10289C004425294601A800F0BDF804EB440101AA27
:1028AC00144B1944284600F00FFA03280DD00134BC
:1028BC00E4B2E9E74FF480622146104800F0C1FE13
:1028CC000C4B9B698342DED1BCE7FFF781FFB9E774
:1028DC004FF480620549094800F0B3FE054B9B6933
:1028EC008342AFD0FFF774FFACE700BFC0320020CB
:1028FC00AC8400202C96002022AF00207C8300208A
:10290C0010B5094C4FF400620121204603F0D4FEAF
:10291C004FF0013344F8093C44F8053C04F8013C01
:10292C0004F80A3C10BD00BF16A70020064B034458
:10293C009B7A8B4207D0044B1A18917203EB102030
:10294C00012242701A7070470CA700201A4B1B789A
:10295C008BB310B50024184B1C7001E00134E4B2A9
:10296C00082C10D8144B23445B78012BF6D104F1BE
:10297C000A0100234FF480720902104800EB042076
:10298C00FEF71AFBEAE70D4C4FF400612046FDF709
:10299C00A7FDA4F80008002302224FF4905104F57F
:1029AC000060FEF709FB002344F8093C44F8053CA1
:1029BC0004F8013C10BD70470CA7002016A700209E
:1029CC0038B50A4C012340F602024FF42061204630
:1029DC00FEF732FBB4F800584FF400612046FDF7C7
:1029EC007FFD854201D0FFF78BFF38BD16A7002075
:1029FC000022114608E05B082BB113F0010FFAD04E
:102A0C000132D2B2F7E70131022901D8435CF3E776
:102A1C00104670472DE9F04F8BB00346059000200F
:102A2C009870587018700346824683460290019045
:102A3C00039004460546064607468446864680466D
:102A4C008146049015E00498504004901BE088EAFD
:102A5C0002081DE08CEA020C1EE0564020E05440B7
:102A6C0024E001985040019026E08BEA020B0133E0
:102A7C00DBB213F0800F25D151F8232013F0010F96
:102A8C00E1D089EA020913F0020FE0D08EEA020EBF
:102A9C0013F0040FDED0574013F0080FDDD0554073
:102AAC0013F0100FDBD003985040039013F0200F5D
:102ABC00D7D002985040029013F0400FD5D08AEA3C
:102ACC00020AD4E70498019B029A5340D9B2C3F38B
:102ADC000722079108924A400692C3F307420992D3
:102AEC001146069A4A401B0E04935A40754B9A5C49
:102AFC001FFA8BF383EA1B4B5FFA8BF383EA1B2BD6
:102B0C001FFA8AF181EA1A41CBB283EA11215300F0
:102B1C005BB223F003036B4A12F90B2002F00102A3
:102B2C001343684A525C520002F002021343059AA6
:102B3C00937007998A46099B9B468AEA0302089977
:102B4C008A4604998AEA0101049B8BEA030A83B240
:102B5C0083EA1040C3B283EA102B1FFA89F383EA8D
:102B6C0019495FFA89F383EA19291FFA88F383EA72
:102B7C0018485FFA88F383EA18281FFA8EF383EA61
:102B8C001E4E5FFA8EF383EA1E2304931FFA8CF019
:102B9C0080EA1C4C5FFA8CF080EA1C230793BBB2D2
:102BAC0083EA1747FBB283EA1727B3B283EA1646C8
:102BBC00F3B283EA1626ABB283EA1545EBB283EA8D
:102BCC001525A3B283EA1444E3B283EA1424DDF896
:102BDC000CC01FFA8CF383EA1C435FFA83FC8CEA6B
:102BEC00132CDDF804E01FFA8EF383EA1E435FFA20
:102BFC0083FE8EEA132E029883B283EA1043D8B276
:102C0C0080EA13232F48825602F00102415C4900EE
:102C1C0001F002010A4301460698095C890001F0A3
:102C2C0004010A432749084611F80A10C90001F0AB
:102C3C0008010A4310F80B10090101F010010A43B6
:102C4C0010F80910490101F02001114310F8082077
:102C5C00920102F040020A4301460498095C42EAE0
:102C6C00C112059802701749079A8A5602F00102A0
:102C7C000846C95D490001F002011143825D9200D2
:102C8C0002F004021143425DD20002F008020A4332
:102C9C00015D090101F01001114310F80C205201E3
:102CAC0002F02002114310F80E20920102F04002B3
:102CBC000A43C35C42EAC313059843700BB0BDE8EA
:102CCC00F08F00BFEC6800082DE9F04383B0147856
:102CDC000B785C408DF8044057784B785F408DF84A
:102CEC00057096788B785E408DF8066044EA070391
:102CFC00334303D1002003B0BDE8F08390468946EE
:102D0C00054601A8FFF774FE0C2803D0012833D028
:102D1C000320F0E7C6F3C003320902F002021343AA
:102D2C00720902F004021A43A308E0082109C4F353
:102D3C00400403F00203234300F00404234301F096
:102D4C0008010B43F90001F010010B43B90001F02D
:102D5C0020010B43790001F040010B4307F0800781
:102D6C003B43F60106F480763343012000FA02F16E
:102D7C00EA5C4A40EA54BEE798F8003089F8003023
:102D8C0098F8013089F8013098F8023089F802304F
:102D9C000220B0E7B1F5005F26D830B583B00578D6
:102DAC00124C2570124C24788CB1022B03D0052BBD
:102DBC0007D003B030BD03784D2BFAD1FDF70AFCD8
:102DCC00F7E70092B1234D22FDF702FEF1E7022B4B
:102DDC0007D0052BEDD10092B1234D22FDF7F8FD64
:102DEC00E7E7FDF7F7FBE4E7704700BF26B70020E5
:102DFC00C04200201D4B1B6803B170472DE9F04108
:102E0C0086B00125194B1D6000240094184B9A6B59
:102E1C002A439A639B6B2B400093009B4DF6F30364
:102E2C0001934FF00208CDF8088003940327049710
:102E3C000C26059601A90F4801F074F94FF4F063C4
:102E4C000193CDF8088003940497059601A90A48CC
:102E5C0001F068F922462946302000F059FB302059
:102E6C0000F08AFB06B0BDE8F08100BFC442002030
:102E7C0000380240000C02400010024010B582B035
:102E8C0000240094214B5A6C42F480425A645A6CD0
:102E9C0002F480420092009A01941A6C42F0805223
:102EAC001A641B6C03F080530193019B032000F008
:102EBC001DFB224621466FF00B0000F029FB224639
:102ECC0021466FF00A0000F023FB224621466FF0EA
:102EDC00090000F01DFB224621466FF0040000F0B3
:102EEC0017FB224621466FF0030000F011FB22462F
:102EFC0021466FF0010000F00BFB224621464FF0FB
:102F0C00FF3000F005FB02B010BD00BF00380240DE
:102F1C000268094B9A4200D0704782B0002301939B
:102F2C00064B1A6B42F480521A631B6B03F48053EA
:102F3C000193019B02B07047003002400038024000
:102F4C0000B585B00368244A934208D0B3F1804F92
:102F5C0019D0224A93422BD005B05DF804FB002215
:102F6C0001921F4B596C41F0010159645B6C03F0E9
:102F7C0001030193019B0621192000F0C9FA1920C5
:102F8C0000F0FAFAE8E70022029203F50E33196C0E
:102F9C0041F0010119641B6C03F001030293029BC5
:102FAC0004211C2000F0B4FA1C2000F0E5FAD3E751
:102FBC00002203920A4B596C41F4003159645B6C4A
:102FCC0003F400330393039B0621192000F0A0FAAD
:102FDC00192000F0D1FABFE7000001400044014085
:102FEC000038024002680B4B9A4200D0704700B583
:102FFC0087B04FF480730193022302930023039351
:10300C0004930123059301A9034801F08BF807B041
:10301C005DF804FB00000140000002402DE9F04780
:10302C0088B004460368764A934209D0754A9342A5
:10303C0045D0754A934200F09C8008B0BDE8F087FB
:10304C0000250095714B5A6C42F010025A645B6C6F
:10305C0003F010030093009BC023039302230493FB
:10306C0001230593032306930723079303A96848B9
:10307C0001F058F86748684B03604FF000634360F9
:10308C008560C5604FF48063036145618561C561EE
:10309C000562456200F072FB58B95E4B63639C633A
:1030AC0000220921252000F033FA252000F064FAD3
:1030BC00C3E74FF497715948FEF7BEFBEDE7584E46
:1030CC000421304601F01EF9002501954F4B1A6C76
:1030DC0042F400321A641B6C03F400330193019B1D
:1030EC00082303934FF0020ACDF810A005954FF07A
:1030FC000309CDF818904FF00708CDF81C8003A9F0
:10310C00484801F00FF804270397CDF810A00123CD
:10311C000593CDF81890CDF81C8003A9304601F02A
:10312C0001F84148414B03604FF00063436040237A
:10313C008360C5604FF48063036145618561C5613F
:10314C004FF400330362476200F018FB58B9364B5A
:10315C0023639C6300220321262000F0D9F926204A
:10316C0000F00AFA69E740F265112C48FEF764FB9F
:10317C00EDE72F4E4021304601F0C4F800250295B2
:10318C00224B5A6C42F020025A645B6C03F0200311
:10319C000293029B40270397022304930123059378
:1031AC00032306930823079303A9304600F0BAFFC4
:1031BC002048214B03604FF0206343608760C5605B
:1031CC004FF48063036145618561C5614FF4003341
:1031DC000362456200F0D2FA58B9164B23639C6324
:1031EC0000220121472000F093F9472000F0C4F998
:1031FC0023E74FF4D7710948FEF71EFBEDE700BF3C
:10320C00001001400044004000140140003802400E
:10321C0000040240EC83002040640240346A000841
:10322C0000000240000C02404C840020A0600240D0
:10323C00000802408C830020B864024070B586B050
:10324C0004460368324A934207D0324A934215D05F
:10325C00314A934239D006B070BD02F59432536CAA
:10326C0023F010035364C0212C4801F04BF8606B21
:10327C0000F0EAFA252000F08BF9ECE702F5FA32BF
:10328C00136C23F4003313640821254801F03AF839
:10329C00244D0421284601F035F8206B00F0D4FAB7
:1032AC00262000F075F9042601960124029403945B
:1032BC00032304930DEB0601284600F033FF22464E
:1032CC003146284601F0BCF8C5E702F59232536C42
:1032DC0023F020035364144D4021284601F012F8CA
:1032EC00206B00F0B1FA472000F052F9402601960D
:1032FC000124029403940323049301A9094800F0C8
:10330C0011FF22463146284601F09AF8A3E700BF88
:10331C000010014000440040001401400004024031
:10332C00000C0240000002400008024008B5FFF704
:10333C0061FD08BD7047FEE7FEE7FEE7FEE770475C
:10334C007047704708B500F0C5F800F065F908BD86
:10335C0008B5024800F0F6FB08BD00BF4C84002005
:10336C0008B5034802F0ADF9024802F0AAF908BD0D
:10337C002C8500203483002008B5024802F0A1F906
:10338C0008BD00BFAC85002008B5034803F032F837
:10339C00FDF70AFA08BD00BFEC84002008B502480E
:1033AC0003F028F808BD00BFE885002008B50248E6
:1033BC0001F0A8F808BD00BFAC84002008B5024895
:1033CC0000F0C0FB08BD00BFEC83002008B5FDF782
:1033DC00F7FE08BD08B5024800F0B4FB08BD00BFFD
:1033EC00D48200200F49D1F8883043F47003C1F81F
:1033FC0088300D4B1A6842F001021A600020986068
:10340C001A6822F0847222F480321A60074A5A60D9
:10341C001A6822F480221A60D8604FF000638B6027
:10342C00704700BF00ED00E000380240103000246F
:10343C007047000010B5094B4FF0FF321A620024A0
:10344C001C625A625C621A611C615A615C619A610D
:10345C009C61FFF7EDFF204610BD00BF0038024015
:10346C0010B504460E4B18784FF47A73B3FBF0F397
:10347C000C4A1068B0FBF3F000F0A8F868B90F2CF8
:10348C0001D901200AE0002221464FF0FF3000F064
:10349C003FF8034B5C60002000E0012010BD00BF32
:1034AC00080000200400002008B5094B1A6842F4FB
:1034BC0000721A601A6842F480621A60032000F0ED
:1034CC0015F80020FFF7CCFFFFF7D8FC002008BD53
:1034DC00003C0240034A1168034B1B780B441360F9
:1034EC00704700BF2CBB002008000020074AD3689F
:1034FC0023F4E0631B041B0C000200F4E06018438F
:10350C0040F0BF6040F40030D060704700ED00E048
:10351C0030B4174BDB68C3F30223C3F10704042C4C
:10352C0028BF04241D1D062D18D9033B4FF0FF3571
:10353C0005FA04F421EA0401994005FA03F322EA9E
:10354C000303194300280BDB0901C9B200F16040E9
:10355C0000F5614080F8001330BC70470023E5E7AC
:10356C0000F00F000901C9B2024B1954F4E700BF77
:10357C0000ED00E014ED00E000F01F024009012313
:10358C009340024A42F82030704700BF00E100E04F
:10359C0000F01F024009012393402030014A42F8F9
:1035AC002030704700E100E0BFF34F8F0549CA6837
:1035BC0002F4E062044B1343CB60BFF34F8F00BFA8
:1035CC00FDE700BF00ED00E00400FA050138B0F1A2
:1035DC00807F0AD2064B5860064AF02182F82310ED
:1035EC000020986007221A6070470120704700BFC6
:1035FC0010E000E000ED00E0042805D0054A136857
:10360C0023F0040313607047024A136843F0040369
:10361C001360704710E000E008B5FEF76BF808BDCA
:10362C0068B110B5044643792BB1022363710123B1
:10363C006371002010BD0371FFF76AFCF5E70120F0
:10364C0070470379012B1AD030B401230371022384
:10365C0043710468A36843F00103A360002304E0F2
:10366C00046851F82350256001339342F8D30123A9
:10367C004371002303710368186830BC7047022043
:10368C00704730B405682C6824F480242C600468DE
:10369C0063608368402B05D0036899600368DA6027
:1036AC0030BC704703689A600368D960F8E7000083
:1036BC000268D3B2103B0B49A1FB03131B090A4947
:1036CC00C95CC165032B06D822F47F7222F0030279
:1036DC008265806D704722F47F7222F003020432FF
:1036EC008265F6E7ABAAAAAA046A0008836A826913
:1036FC0092B9012B0AD01BB1022B01D000207047CC
:10370C00C36A13F0807F2CD100207047C36AB3F1D9
:10371C00C07F28D000207047B2F5005F05D0022B87
:10372C0029D9032B15D000207047032B03D8DFE8D1
:10373C0003F01C041C0A00207047C36A13F0807F3E
:10374C0015D100207047C36AB3F1C07F11D000209F
:10375C007047C36A13F0807F01D0012070470020AE
:10376C0070470120704701207047012070470120ED
:10377C0070470120704701207047000070B5044667
:10378C00FDF746FB002C5BD00546002384F8343053
:10379C00022384F835302268136823F00103136088
:1037AC0023681A6812F0010F0AD0FDF731FB401B99
:1037BC000528F5D920236365032084F8350070BDF6
:1037CC001A68204810406168A2680A43E1680A43FD
:1037DC0021690A4361690A43A1690A43E1690A4301
:1037EC00216A0A430243616A04291ED01A602668C2
:1037FC00756925F08705636A1D43042B07D1A36AFD
:10380C001D43E36A1BB12046FFF770FF90B9756149
:10381C002046FFF74DFFE26D3F239340836000206D
:10382C006065012384F83530C9E7E16A206B0143F8
:10383C000A43DBE740236365012084F83500BEE7CB
:10384C000120BCE73F8010F030B338B5044690F847
:10385C003530DBB2022B21D00268136823F0010350
:10386C001360036800251D6003685D6003689D603C
:10387C000368DD6003681D61036821225A61FFF74C
:10388C0017FFE26D3F2393408360656584F83550E4
:10389C0084F83450284638BD012070470220FAE7DE
:1038AC0038B590F83440012C1CD0012480F83440F9
:1038BC0090F83540E4B2012C04D0002380F8343069
:1038CC00022038BD0546022085F8350000246C65C1
:1038DC002846FFF7D6FE2A68136843F001031360ED
:1038EC002046EEE70220ECE738B5856D90F83440C1
:1038FC00012C36D0012480F8344090F83540E4B2E5
:10390C00012C04D0002380F83430022038BD04464A
:10391C00022084F83500002060652046FFF7B1FED8
:10392C00E26D3F239340AB602268136843F01603AB
:10393C00136023680C4A126893420DD0236C23B198
:10394C002268136843F0080313602268136843F07D
:10395C00010313600020D9E75A6922F080025A61F2
:10396C00ECE70220D2E700BF4C84002070B504467F
:10397C00866DFDF74DFA94F83530DBB2022B06D08C
:10398C0080236365002384F83430012070BD054624
:10399C002268136823F0160313602268536923F01E
:1039AC0080035361236CE3B12268136823F008038E
:1039BC0013602268136823F00103136023681B68EB
:1039CC0013F0010F11D0FDF723FA401B0528F5D990
:1039DC0020236365002384F83430032084F83500F9
:1039EC00D4E7A36C002BDFD1E3E7E26D3F239340D8
:1039FC00B360002084F83400012384F83530C5E727
:103A0C0090F83530DBB2022B03D0802343650120C4
:103A1C007047052380F835300268136823F00103E2
:103A2C001360002070472DE9F8430446894615467B
:103A3C00FDF7EEF994F83530DBB2022B07D080237A
:103A4C006365002384F834300120BDE8F883804698
:103A5C0023681B6813F4807F38D1B9F1000F3AD179
:103A6C00E36D20279F40A66D33681F4241D1636DE3
:103A7C0013F0010F3DD1B5F1FF3F07D0002D2ED033
:103A8C00FDF7C6F9A0EB0800A84228D83368E16D11
:103A9C0008228A401A4204D0616D41F0010161652F
:103AAC00B260E16D01228A401A4204D0616D41F08E
:103ABC0002016165B260E16D04228A401A42D4D0E1
:103ACC00616D41F004016165B260CEE74FF4807323
:103ADC0063650120B9E7E36D10279F40C3E72023FE
:103AEC006365002384F83430012384F835300320D7
:103AFC00ABE7636D1BB1636D13F0010F08D1B9F126
:103B0C00000F13D0E26D10239340B36000209CE7AC
:103B1C002046FFF72BFFE26D30239340B360002368
:103B2C0084F83430012084F835008EE7E26D3023C0
:103B3C009340B360002084F83400012384F83530BE
:103B4C0083E70000F0B583B0044600230193724B69
:103B5C001D68724BA3FB0535AD0A876D3E68C26DBF
:103B6C0008239340334210D003681A6812F0040FF4
:103B7C000BD01A6822F004021A60C26D082393401D
:103B8C00BB60436D43F001034365E26D0123934039
:103B9C00334209D02268526912F0800F04D0BB6006
:103BAC00636D43F002036365E26D0423934033427B
:103BBC0009D02268126812F0020F04D0BB60636D4A
:103BCC0043F004036365E26D10239340334224D029
:103BDC002268126812F0080F1FD0BB6023681A68A5
:103BEC0012F4802F0DD01B6813F4002F04D1236C1A
:103BFC009BB12046984710E0A36C73B120469847C0
:103C0C000BE01A6812F4807F03D11A6822F00802C4
:103C1C001A60236C0BB120469847E26D2023934029
:103C2C00334255D02268126812F0100F50D0BB608E
:103C3C0094F83530DBB2052B0ED023681A6812F4D9
:103C4C00802F33D01B6813F4002F2AD1636C002B08
:103C5C003ED0204698473BE02268136823F01603B9
:103C6C0013602268536923F080035361236CA3B162
:103C7C002268136823F008031360E26D3F2393401E
:103C8C00BB60002384F83430012384F83530236D75
:103C9C00002B3FD0204698473CE0A36C002BE7D18B
:103CAC00EBE7E36BA3B12046984711E01A6812F4D6
:103CBC00807F09D11A6822F010021A60002384F860
:103CCC003430012384F83530E36B0BB12046984730
:103CDC00636DFBB1636D13F0010F17D0052384F8EE
:103CEC0035302268136823F001031360019B013304
:103CFC000193AB4204D823681B6813F0010FF5D174
:103D0C00002384F83430012384F83530E36C0BB194
:103D1C002046984703B0F0BD04000020B5814E1B2F
:103D2C0010B409490C6924F440740C610C6944F416
:103D3C0040740C610C6944F001040C610260436036
:103D4C005DF8044B704700BF003C0240074B1A69FA
:103D5C0022F440721A611A6942F400721A611A69EB
:103D6C0042F001021A610160704700BF003C024042
:103D7C00074B1A6922F440721A611A6942F4807274
:103D8C001A611A6942F001021A610180704700BF82
:103D9C00003C0240064B1A6922F440721A611A69FF
:103DAC001A611A6942F001021A610170704700BF72
:103DBC00003C0240274BDB6813F0100F07D0264A5B
:103DCC00D36943F01003D361224B1022DA60214BEC
:103DDC00DB6813F0200F07D01F4AD36943F00803A8
:103DEC00D3611C4B2022DA601A4BDB6813F0400FB6
:103DFC0007D0194AD36943F00403D361154B402211
:103E0C00DA60144BDB6813F0800F07D0124AD369C9
:103E1C0043F00203D3610F4B8022DA600D4BDB6859
:103E2C0013F4807F08D00C4AD36943F00103D361AB
:103E3C00084B4FF48072DA60064BDB6813F0020F0C
:103E4C0007D0054AD36943F02003D361014B02220A
:103E5C00DA607047003C024030BB0020094B1B6904
:103E6C00002B01DB00207047064B074A5A6002F119
:103E7C0088325A601B69002B01DB0020704701203F
:103E8C00704700BF003C024023016745034A136999
:103E9C0043F0004313610020704700BF003C024018
:103EAC0038B50446154B0022DA61FCF7B1FF054624
:103EBC00134BDB6813F4803F0AD0B4F1FF3FF7D00B
:103ECC00CCB1FCF7A5FF401BA042F1D903200DE0BB
:103EDC000B4BDB6813F0010F02D0094B0122DA60A7
:103EEC00074BDB6813F4F97F01D1002038BDFFF7D5
:103EFC0061FF0120FAE70320F8E700BF30BB002088
:103F0C00003C0240F8B51D4C247E012C34D01F46D9
:103F1C0016460D460446194B01221A764CF25030C7
:103F2C00FFF7BEFF014698B9BCB1012C1AD0022C88
:103F3C001DD032463B462846FFF7F2FE4CF250307D
:103F4C00FFF7AEFF01460E4A136923F0010313611C
:103F5C000A4B00221A760846F8BDF1B22846FFF744
:103F6C0019FFEBE7B1B22846FFF702FFE6E731464F
:103F7C002846FFF7EBFEE1E70221ECE730BB00201F
:103F8C00003C0240114A136923F440731361032966
:103F9C000ED0012913D00D4A136943F40043136169
:103FAC000A4A136943EA002040F4803010617047DC
:103FBC00136943F4004343F004031361F0E7034A2D
:103FCC00136943F004031361EAE700BF003C0240AD
:103FDC0010B449B1012924D0022902D04FF4407405
:103FEC0003E04FF4007400E000240B2800D90430E7
:103FFC000D4B196921F4407119611A6922431A6138
:10400C001A6922F0F8021A611A6942EAC00040F0FB
:10401C00020018611A6942F480321A615DF8044B8F
:10402C0070474FF48074E0E7003C0240164B1B686D
:10403C0013F4007F10D0144B1A6822F400721A602B
:10404C001A6842F400621A601A6822F400621A605C
:10405C001A6842F400721A600B4B1B6813F4806FE1
:10406C0010D0094B1A6822F480621A601A6842F464
:10407C0080521A601A6822F480521A601A6842F44C
:10408C0080621A60704700BF003C0240F8B5234BB9
:10409C001B7E012B40D00E460446204B01221A7683
:1040AC004CF25030FFF7FCFE074680BB4FF0FF335D
:1040BC0033602368012B16D0A568E368A26813440B
:1040CC00AB4222D9217C2846FFF782FF4CF25030BC
:1040DC00FFF7E6FE124A136923F0FA031361074651
:1040EC0090B90135E9E76168207CFFF74BFF4CF292
:1040FC005030FFF7D5FE0746094A136923F40043F5
:10410C0023F00403136100E03560FFF78FFF034BCE
:10411C0000221A763846F8BD0227FBE730BB002098
:10412C00003C024000230F2B00F2E380F0B482B07D
:10413C0039E0092200E00022B2403A4302346D4ECD
:10414C0046F824206C4A1468EA4302EA04064F68D5
:10415C0017F4803F01D045EA0406674C266064687A
:10416C0002EA04064F6817F4003F01D045EA040642
:10417C00614C6660A46802EA04064F6817F4801F5D
:10418C0001D045EA04065C4CA660E46822404E6807
:10419C0016F4001F01D045EA0402574CE2600133CB
:1041AC000F2B00F2A38001229A400C6804EA02054E
:1041BC00AA42F4D14C68022C01D0122C10D1DE088A
:1041CC00083650F826C003F00704A7000F24BC40A3
:1041DC002CEA040C0C69BC4044EA0C0440F8264060
:1041EC0004685F000326BE40F64306EA040C4C68E4
:1041FC0004F00304BC4044EA0C0404604C6804F171
:10420C00FF3CBCF1010F03D9112C01D0122C10D1A1
:10421C00846806EA040CCC68BC4044EA0C04846054
:10422C00446824EA02024C68C4F300149C40144312
:10423C004460C26816408A68BA403243C2604A6819
:10424C0012F0805FABD0002201922C4A546C44F4E3
:10425C0080445464526C02F480420192019A9C088E
:10426C00A61C244A52F8267003F0030296000F2273
:10427C00B24027EA0207224A90423FF45CAF02F5B3
:10428C008062904222D002F58062904220D002F5EA
:10429C00806290421ED002F5806290421CD002F5E2
:1042AC00806290421AD002F58062904218D002F5DA
:1042BC008062904216D002F58062904214D002F5D2
:1042CC00806290423FF435AF0A2235E7012233E792
:1042DC00022231E703222FE704222DE705222BE7E8
:1042EC00062229E7072227E7082225E702B0F0BCBF
:1042FC007047704700380140003C014000380240D4
:10430C000000024000230F2B00F29280F0B50AE06F
:10431C00092500E0002505FA02F2A2426FD0013314
:10432C000F2B00F2848001229A4002EA0106B2426D
:10433C00F5D105685F000324BC40E44325400560CB
:10434C004FEAD30C0CF1080C50F82CE003F00705E5
:10435C00AD000F2707FA05F52EEA050540F82C509D
:10436C00856825408560456825EA02024260C2687E
:10437C001440C4604FEA930C0CF102042D4A52F81D
:10438C00244003F00302920097403C402A4DA8427F
:10439C00C0D005F58065A84221D005F58065A842FE
:1043AC001FD005F58065A8421DD005F58065A84293
:1043BC001BD005F58065A84219D005F58065A8428B
:1043CC0017D005F58065A84215D005F58065A84283
:1043DC0013D005F58065A8429AD00A259BE70125E4
:1043EC0099E7022597E7032595E7042593E705252B
:1043FC0091E706258FE707258DE708258BE70D4DFF
:10440C000CF1020255F8224024EA070745F8227005
:10441C000A4C2568F24315402560656815406560B7
:10442C00A5681540A560E5682A40E26077E7F0BD15
:10443C00704700BF0038014000000240003C0140C2
:10444C0012B90904816170478161704708B338B5AE
:10445C00044603684CF6CC421A60036845F2555288
:10446C001A60036842685A60036882689A60FCF7B5
:10447C00CFFC05462368DA6832B1FCF7C9FC401B57
:10448C003028F7D9032003E04AF6AA221A6000204C
:10449C0038BD0120704703684AF6AA221A60002032
:1044AC00704760B370B5044615460E4690F821303F
:1044BC00D3B1211D206802F035F8626831462068BE
:1044CC0002F054F862682946206802F068F86368C4
:1044DC00102B0ED02268136A43F0040313620123DD
:1044EC0084F82130002070BD80F82030FEF71EFFCC
:1044FC00DFE72268136843F004031360EFE7012041
:10450C007047704710B504464368102B21D00368E0
:10451C005B6A03F00103DBB20BBB6368102B30D07A
:10452C0023685B6AC3F34003002B2FD16368102B05
:10453C003ED023685B6AC3F38003002B3DD16368D4
:10454C00102B4CD023685B6AC3F38013002B4BD128
:10455C0010BD03685B6803F00103DBB2DCE72046A7
:10456C00FFF7CFFF6368102B05D02268536A23F046
:10457C0001035362D1E72268536823F001035360AF
:10458C00CBE723685B68C3F34003CDE72046FFF716
:10459C00B8FF6368102B05D02268536A23F002031E
:1045AC005362C3E72268536823F002035360BDE7EC
:1045BC0023685B68C3F38003BFE72046FFF7A1FFC6
:1045CC006368102B05D02268536A23F004035362EE
:1045DC00B5E72268536823F004035360AFE7236800
:1045EC005B68C3F38013B1E72046FFF78AFF63686B
:1045FC00102B05D02268536A23F040035362A7E7BF
:10460C002268536823F040035360A1E790F82030F0
:10461C00012B1ED0012380F8203090F82130DBB222
:10462C00022B18D04368102B10D04FF000430222FD
:10463C0080F8212043F48033FF221A70012380F884
:10464C002130002380F82030184670474FF0E043AB
:10465C00EDE702207047022070474368102B0FD003
:10466C004FF0004343F48032702111701B78DBB2A1
:10467C0013F0010F09D113F0400F04D10020704743
:10468C004FF0E043EEE740207047012070472DE9E2
:10469C00F04F85B099460023039390F82030012BFE
:1046AC0000F0AE8005461446012380F8203090F8C7
:1046BC002130DBB2022B00F0A5804368102B11D007
:1046CC004FF00047022385F821300B888A88B1F817
:1046DC000280A96B01FB0828EA6A02FB08384FF03C
:1046EC00000A45E04FF0E047ECE747F400330022C6
:1046FC001A705FFA88F21A70C8F307221A70C8F39E
:10470C0007421A705CE0EA6A2B6B03FB02F3B3F509
:10471C00803F0BD247F4003300221A701A705FFAF4
:10472C0088F21A70C8F307221A7049E047F4003374
:10473C0000221A701A705FFA88F21A70C8F30722F6
:10474C001A70C8F307421A703AE000238BF8003055
:10475C00BFF34F8F05E03B782370039B013303932A
:10476C000134039BB342F6D309F1FF3908F1010878
:10477C00B9F1000F3BD0EA6A2B6B03FB02F3434504
:10478C0035D90AF1010A6E6A06FB0AF647F4803B3A
:10479C0000238BF800306B6AB3F5007FB3D8EA6A5C
:1047AC002B6B03FB02F3B3F5803F9ED247F400332F
:1047BC0000221A705FFA88F21A70C8F307221A7076
:1047CC0030238BF8003095F83C30012BC9D1FCF725
:1047DC001FFB01902846FFF740FF4028B5D0FCF79F
:1047EC0017FB019BC01A0A28F4D9032005E001230A
:1047FC0085F82130002085F8200005B0BDE8F08F49
:10480C000220FAE70220F8E72DE9F04782B09A4639
:10481C000023019390F82030012B00F0A88005466E
:10482C001646012380F8203090F82130DBB2022BA1
:10483C0000F09F804368102B3AD04FF000470223C2
:10484C0085F821300B888A88B1F80280A96B01FBAE
:10485C000828EA6A02FB08384FF00009BAF1000F89
:10486C007ED0EA6A2B6B03FB02F3434578D909F13E
:10487C0001096A6A02FB09F247F4803100230B70CC
:10488C0080230B706B6AB3F5007F22D8E86A2B6B20
:10489C0003FB00F3B3F5803F0DD247F40033002047
:1048AC0018705FFA88F01870C8F3072018703CE095
:1048BC004FF0E047C3E747F40033002018705FFA6D
:1048CC0088F01870C8F307201870C8F307401870E8
:1048DC002BE0E86A2B6B03FB00F3B3F5803F0BD2A4
:1048EC0047F400330020187018705FFA88F01870C5
:1048FC00C8F30720187018E047F400330020187034
:10490C0018705FFA88F01870C8F307201870BFF39E
:10491C004F8FC8F307401870BFF34F8F05E0337803
:10492C003B70019B013301930136019B9342F6D3FB
:10493C0010230B702846FFF790FE40280BD0FCF795
:10494C0067FA0446FCF764FA001B0A28F2D9032024
:10495C0002B0BDE8F0870AF1FF3A08F101087DE7E3
:10496C00012385F82130002085F82000F0E7022093
:10497C00EEE70220ECE72DE9F04F85B099460023D5
:10498C00039390F82030012B00F0B98005461446B3
:10499C00012380F8203090F82130DBB2022B00F09C
:1049AC00B0804368102B13D04FF00047022385F8DA
:1049BC0021300B888A88B1F80280A96B01FB08288A
:1049CC00EA6A02FB08386B6A01934FF0000A4DE06B
:1049DC004FF0E047EAE747F4003300221A705FFA21
:1049EC0088F21A70C8F307221A70C8F307421A70BB
:1049FC0063E047F4803300221A70EA6A2B6B03FBE6
:104A0C0002F3B3F5803F0ED247F400330199CAB2DA
:104A1C001A70C1F307221A705FFA88F21A70C8F381
:104A2C0007221A7049E047F400330199CAB21A7090
:104A3C00C1F307221A705FFA88F21A70C8F30722C2
:104A4C001A70C8F307421A7037E000238BF8003055
:104A5C0005E03B782370039B013303930134039BE4
:104A6C00B342F6D309F1FF3908F10108B9F1000F8F
:104A7C003CD0EA6A2B6B03FB02F3434536D90AF1AF
:104A8C00010AAE6A06FB0AF66B6AB3F5007FB0D872
:104A9C0047F4803350221A70EA6A2B6B03FB02F343
:104AAC00B3F5803F97D247F4003300221A705FFAB7
:104ABC0088F21A70C8F307221A7047F4803B30232F
:104ACC008BF8003095F83C30012BC8D1FCF7A0F9DD
:104ADC0000902846FFF7C1FD4028B6D0FCF798F9A6
:104AEC00009BC01A0A28F4D9032005E0012385F89D
:104AFC002130002085F8200005B0BDE8F08F0220A1
:104B0C00FAE70220F8E72DE9F04F83B0994600232D
:104B1C00019390F82030012B00F0B080044615462C
:104B2C00012380F8203090F82130DBB2022B00F00A
:104B3C00A7804368102B3BD04FF00046022384F82B
:104B4C0021300B888A884F88A16B01FB0727E26A0A
:104B5C0002FB0737D4F824A04FF00008B9F1000F7E
:104B6C0000F08580E26A236B03FB02F3BB427ED923
:104B7C0008F10108A26A02FB08F2636AB3F5007F30
:104B8C0026D846F480335021197080211970E16ABF
:104B9C00236B03FB01F3B3F5803F0CD246F40033D7
:104BAC0000211970F9B21970C7F30721197041E08F
:104BBC004FF0E046C2E746F4003300211970F9B219
:104BCC001970C7F307211970C7F30741197031E049
:104BDC0046F480330021197080211970E16A236B2F
:104BEC0003FB01F3B3F5803F0DD246F400335FFABB
:104BFC008AF11970CAF307211970F9B21970C7F349
:104C0C000721197016E046F400335FFA8AF1197027
:104C1C00CAF307211970F9B21970C7F3072119707B
:104C2C00C7F30741197005E02B783370019B0133F2
:104C3C0001930135019B9342F6D346F48033102245
:104C4C001A70FCF7E5F883462046FFF706FD40286E
:104C5C0009D0FCF7DDF8A0EB0B000A28F4D90320EF
:104C6C0003B0BDE8F08F09F1FF39013776E7012376
:104C7C0084F82130002084F82000F1E70220EFE7CF
:104C8C000220EDE7F8B590F82030012B57D0012326
:104C9C0080F8203090F82130DBB2022B51D04368E1
:104CAC00102B45D04FF000420446022380F82130EF
:104CBC0042F48030602303700D888E884B88A76B7C
:104CCC0007FB0363E66A42F4003213FB0653DBB2C4
:104CDC0013700D888E884B88A76B07FB0363E66AFD
:104CEC0006FB0353C3F3072313700D888E884B8880
:104CFC00A16B01FB0363E16A01FB0353C3F307439D
:104D0C001370D0230370012384F82130FCF780F852
:104D1C0005462046FFF7A1FC40280CD0FCF778F89C
:104D2C00401B0A28F5D9002384F82030032005E025
:104D3C004FF0E042B8E7002084F82000F8BD0220D4
:104D4C00FCE70220FAE7000010B582B000230193C3
:104D5C00194B1A6C42F080521A641B6C03F080538E
:104D6C000193019B154B01221A60FCF751F8044684
:104D7C00134B5B6813F4803F08D1FCF749F8001B18
:104D8C00B0F57A7FF4D9032002B010BD0D4B01228F
:104D9C001A60FCF73DF80446094B5B6813F4003FBE
:104DAC0007D1FCF735F8001BB0F57A7FF4D9032056
:104DBC00EAE70020E8E700BF0038024040000E425E
:104DCC000070004044000E42002800F0BB8170B51A
:104DDC0082B00446036813F0010F3BD0A74B9B68CD
:104DEC0003F00C03042B2CD0A44B9B6803F00C0396
:104DFC00082B21D06368B3F5803F4FD0B3F5A02FBB
:104E0C0052D09E4B1A6822F480321A601A6822F42F
:104E1C0080221A606368002B50D0FBF7F9FF05461F
:104E2C00964B1B6813F4003F14D1FBF7F1FF401BAA
:104E3C006428F5D903208AE1904B5B6813F4800F4A
:104E4C00D8D08E4B1B6813F4003F03D06368002B43
:104E5C0000F07A81236813F0020F55D0874B9B68C2
:104E6C0013F00C0F3ED0854B9B6803F00C03082B02
:104E7C0033D0E368002B68D0814B01221A60FBF71A
:104E8C00C7FF05467D4B1B6813F0020F54D1FBF78F
:104E9C00BFFF401B0228F5D9032058E1774A13685D
:104EAC0043F480331360B5E7744B1A6842F48022E4
:104EBC001A601A6842F480321A60ABE7FBF7A8FF5D
:104ECC0005466E4B1B6813F4003FC3D0FBF7A0FFE5
:104EDC00401B6428F5D9032039E1684B5B6813F457
:104EEC00800FC6D1654B1B6813F0020F04D0E3682A
:104EFC00012B01D001202AE1604A136823F0F8034A
:104F0C00216943EAC1031360236813F0080F40D0F2
:104F1C00636963B35B4B01221A60FBF779FF0546AB
:104F2C00564B5B6F13F0020F33D1FBF771FF401B35
:104F3C000228F5D903200AE1504A136823F0F8033C
:104F4C00216943EAC1031360DEE74D4B00221A606E
:104F5C00FBF75EFF0546494B1B6813F0020FD3D0DD
:104F6C00FBF756FF401B0228F5D90320EFE0454B19
:104F7C0000221A60FBF74CFF0546404B5B6F13F0A9
:104F8C00020F06D0FBF744FF401B0228F5D9032083
:104F9C00DDE0236813F0040F79D0384B1B6C13F051
:104FAC00805F33D100230193344B1A6C42F0805252
:104FBC001A641B6C03F080530193019B0125324B47
:104FCC001B6813F4807F23D0A368012B34D0052BEE
:104FDC0038D02A4B1A6F22F001021A671A6F22F08E
:104FEC0004021A67A368002B36D0FBF711FF0646A4
:104FFC00224B1B6F13F0020F48D1FBF709FF801BEC
:10500C0041F288339842F3D90320A0E00025D6E77B
:10501C001D4A136843F480731360FBF7F9FE0646D0
:10502C00194B1B6813F4807FCED1FBF7F1FE801B6C
:10503C000228F5D903208AE0104A136F43F00103CC
:10504C001367CFE70D4B1A6F42F004021A671A6F01
:10505C0042F001021A67C5E7FBF7DAFE0646074B7A
:10506C001B6F13F0020F11D0FBF7D2FE801B41F225
:10507C0088339842F3D9032069E000BF003802401E
:10508C0000004742800E474200700040E5B9A3691A
:10509C00002B5BD0304A926802F00C02082A58D0E0
:1050AC00022B17D02D4B00221A60FBF7B1FE0446E1
:1050BC00294B1B6813F0007F42D0FBF7A9FE001BA5
:1050CC000228F5D9032042E0234A136C23F08053C5
:1050DC001364DCE7214B00221A60FBF799FE0546AE
:1050EC001D4B1B6813F0007F06D0FBF791FE401B95
:1050FC000228F5D903202AE0E369226A1343626A85
:10510C0043EA8213A26A5208013A43EA0243E26A72
:10511C0043EA0263104A5360104B01221A60FBF7FA
:10512C0077FE04460C4B1B6813F0007F06D1FBF78F
:10513C006FFE001B0228F5D9032008E0002006E0D2
:10514C00002004E001207047012000E0002002B0A4
:10515C0070BD0120FBE700BF0038024060004742F1
:10516C00264B9B6803F00C03042B44D0082B01D076
:10517C00234870472DE9F04B204B5A6802F03F0250
:10518C005B6813F4800F13D01C4B5968C1F3881162
:10519C0000231C48A1FB0001FBF722F8174B5B68AE
:1051AC00C3F3014301335B00B0FBF3F0BDE8F08BBC
:1051BC00124B5B68C3F388131E4600275C01002565
:1051CC00E41A65EB0705A90141EA9461A001001BF3
:1051DC0061EB0501CB0043EA5073C400A01943EB0B
:1051EC0007018B0243EA90538402204619460023A0
:1051FC00FAF7F6FFD2E70348704700BF00380240C9
:10520C000024F40000366E01002800F09D8070B57B
:10521C0004464F4B1B6803F00F038B4209D2CBB2F1
:10522C004B4A1370136803F00F038B4201D001201B
:10523C0070BD236813F0020F17D013F0040F04D0C5
:10524C00444A936843F4E0539360236813F0080FC7
:10525C0004D0404A936843F4604393603D4A93689A
:10526C0023F0F003A068034393600D46236813F00A
:10527C00010F32D06368012B21D09A1E012A25D947
:10528C00344A126812F0020F60D032498A6822F058
:10529C00030213438B60FBF7BBFD06462D4B9B684B
:1052AC0003F00C036268B3EB820F16D0FBF7B0FD72
:1052BC00801B41F288339842F0D90320B8E7254A85
:1052CC00126812F4003FE0D10120B1E7214A1268C4
:1052DC0012F0007FD9D10120AAE71D4B1B6803F007
:1052EC000F03AB4209D9EAB2194B1A701B6803F0D1
:1052FC000F03AB4201D001209AE7236813F0040F8F
:10530C0006D0144A936823F4E053E1680B4393608E
:10531C00236813F0080F07D00E4A936823F46043F8
:10532C00216943EAC1039360FFF71AFF094B9B689D
:10533C00C3F30313084AD35CD840084B1860002011
:10534C00FEF78EF8002073E70120704701206FE70D
:10535C00003C024000380240EC69000804000020C8
:10536C00014B1868704700BF0400002008B5FFF718
:10537C00F7FF044B9B68C3F38223034AD35CD840EA
:10538C0008BD00BF00380240FC69000808B5FFF7F3
:10539C00E7FF044B9B68C3F34233034AD35CD8400A
:1053AC0008BD00BF00380240FC6900080F230360F1
:1053BC000B4B9A6802F0030242609A6802F0F0020A
:1053CC0082609A6802F4E052C2609B68DB0803F4C6
:1053DC00E0530361034B1B6803F00F030B60704732
:1053EC0000380240003C024070B4036A23F0010311
:1053FC000362036A4268846924F073040D6845EA09
:10540C00040623F002048B6823430C4DA84202D0FF
:10541C000B4CA0420BD123F00803CD682B4323F097
:10542C00040322F440724D6915438A692A43426091
:10543C0086614A684263036270BC70470000014099
:10544C000004014030B4036A23F480730362036ADE
:10545C004268C46924F073040D682C4323F4007370
:10546C008D6843EA05230E4DA84203D005F58065EF
:10547C00A8420ED123F40063CD6843EA052323F43C
:10548C00806322F440524D6942EA05128D6942EA6A
:10549C0005124260C4614A68C263036230BC704743
:1054AC000000014030B4036A23F480530362036AA2
:1054BC004468C26922F4E6420D6842EA052223F4EC
:1054CC0000538D6843EA0533094DA84203D005F516
:1054DC008065A84204D124F480444D6944EA8514C3
:1054EC004460C2614A680264036230BC704700BF0A
:1054FC000000014010B4036A046A24F00104046241
:10550C00846924F0F00444EA021223F00A030B43EA
:10551C00826103625DF8044B704710B4036A23F098
:10552C00100303628469036A24F4704444EA02326F
:10553C0023F0A00343EA0113826103625DF8044B7C
:10554C007047836823F0700341F0070119438160B1
:10555C00704710B4846824F47F4442EA03230B435D
:10556C00234383605DF8044B7047022380F8393085
:10557C000368196A41F21112114208D1196A40F2FA
:10558C004442114203D11A6822F001021A6001232D
:10559C0080F83930002070470268D36843F001036B
:1055AC00D3600268136843F0010313600020704756
:1055BC00704790F83830012B7DD010B5044601238C
:1055CC0080F83830022380F839300268936823F46D
:1055DC007F4323F0770393600B68402B57D010D98F
:1055EC00702B3ED01FD8502B47D0602B32D1CA68BD
:1055FC0049680068FFF791FF60212068FFF7A1FF61
:10560C0028E0102B4DD008D9202B4FD0302B21D196
:10561C0030210068FFF795FF1CE0DBB90021006822
:10562C00FFF78FFF16E0B3F5805F0ED0B3F5005F88
:10563C0010D1CB684A6889680068FFF78AFF226836
:10564C00936843F48043936004E00268936823F00A
:10565C0007039360012384F83930002084F8380064
:10566C0010BDCB684A6889680068FFF772FF226832
:10567C00936843F077039360ECE7CA684968006865
:10568C00FFF738FF50212068FFF75BFFE2E7CA689D
:10569C0049680068FFF72EFF40212068FFF751FF93
:1056AC00D8E710210068FFF74CFFD3E720210068F2
:1056BC00FFF747FFCEE702207047704770477047EF
:1056CC00704710B5044603681A6912F0020F11D026
:1056DC00DA6812F0020F0DD06FF002021A6101238A
:1056EC00037603689B6913F0030F70D0FFF7E6FF96
:1056FC000023237623681A6912F0040F12D0DA689B
:10570C0012F0040F0ED06FF004021A6102232376FC
:10571C0023689B6913F4407F5FD02046FFF7CEFFD0
:10572C000023237623681A6912F0080F12D0DA6866
:10573C0012F0080F0ED06FF008021A6104232376C2
:10574C002368DB6913F0030F4ED02046FFF7B6FF3A
:10575C000023237623681A6912F0100F12D0DA682E
:10576C0012F0100F0ED06FF010021A61082323767E
:10577C002368DB6913F4407F3DD02046FFF79EFF82
:10578C000023237623681A6912F0010F03D0DA681C
:10579C0012F0010F36D123681A6912F0800F03D072
:1057AC00DA6812F0800F34D123681A6912F0400FB6
:1057BC0003D0DA6812F0400F32D123681A6912F064
:1057CC00200F03D0DA6812F0200F30D110BDFFF794
:1057DC0074FF2046FFF773FF8AE72046FFF76DFF43
:1057EC002046FFF76CFF9BE72046FFF766FF20463D
:1057FC00FFF765FFACE72046FFF75FFF2046FFF79A
:10580C005EFFBDE76FF001021A612046FBF72AFE2E
:10581C00C1E76FF080021A61204600F0F7F9C3E788
:10582C006FF040021A612046FFF74AFFC5E76FF0A0
:10583C0020021A61204600F0E8F9C7E703682E4AF7
:10584C00904212D0B0F1804F0FD0A2F57C42904222
:10585C000BD002F58062904207D002F58062904234
:10586C0003D002F57842904203D123F070034A68CA
:10587C001343214A90422AD0B0F1804F27D0A2F591
:10588C007C42904223D002F5806290421FD002F5F8
:10589C00806290421BD002F57842904217D002F5FC
:1058AC007052904213D002F5806290420FD002F5F4
:1058BC00806290420BD0A2F59832904207D002F54C
:1058CC008062904203D002F58062904203D123F4AF
:1058DC004073CA68134303608B68C3620B688362AE
:1058EC00054B984203D003F58063984201D10B69B4
:1058FC00036301234361704700000140A8B110B558
:10590C00044690F839305BB1022384F83930211DFC
:10591C002068FFF793FF012384F83930002010BD75
:10592C0080F83830FDF70CFBEEE701207047A8B18A
:10593C0010B5044690F839305BB1022384F8393045
:10594C00211D2068FFF77AFF012384F839300020ED
:10595C0010BD80F83830FFF72BFEEEE701207047C2
:10596C0030B4036A23F010030362036A446882694B
:10597C0022F4E6420D6842EA052223F020038D68EA
:10598C0043EA05130E4DA84203D005F58065A842E5
:10599C000ED123F08003CD6843EA051323F04003B6
:1059AC0024F440644D6944EA85048D6944EA850415
:1059BC00446082614A688263036230BC704700BFF6
:1059CC000000014038B590F83830012B66D00D46F8
:1059DC000446012380F83830022380F839300C2A31
:1059EC001AD8DFE802F007191919201919193419F6
:1059FC00191947000068FFF7F7FC2268936943F018
:105A0C00080393612268936923F00403936122686D
:105A1C00936929690B439361012384F83930002081
:105A2C0084F8380038BD0068FFF79AFF2268936944
:105A3C0043F4006393612268936923F48063936158
:105A4C0022689369296943EA01239361E4E70068BA
:105A5C00FFF7F8FC2268D36943F00803D36122688E
:105A6C00D36923F00403D3612268D36929690B43FA
:105A7C00D361D1E70068FFF715FD2268D36943F4C1
:105A8C000063D3612268D36923F48063D3612268F5
:105A9C00D369296943EA0123D361BDE70220C1E739
:105AAC0010B4012303FA01F4036A23EA040303622A
:105ABC00036A8A40134303625DF8044B704700008D
:105ACC0010B5044601220068FFF7EAFF2368094A73
