:020000040800F2
:1000000000000320B9770008B9400008BD4000088F
:10001000C1400008C5400008C940000800000000B9
:10002000000000000000000000000000CD400008BB
:10003000D140000800000000D5400008D940000869
:100040000D7800080D7800080D7800080D7800087C
:100050000D7800080D7800080D7800080D7800086C
:100060000D7800080D7800080D7800080D7800085C
:100070000D7800080D7800080D7800080D7800084C
:100080000D780008E94000080D7800080D78000898
:100090000D7800080D7800080D7800080D7800082C
:1000A0000D780008F54000080D7800080D7800086C
:1000B000114100080D7800080D7800080D7800083F
:1000C0000D7800080D7800080D7800080D780008FC
:1000D0000D7800081D410008314100080D78000826
:1000E0000D7800080D7800080D7800080D780008DC
:1000F0000D7800080D7800080D7800080D780008CC
:100100003D4100080D7800080D7800080D780008C2
:100110000D7800080D7800080D7800080D780008AB
:10012000594100080D780008494100080D78000881
:100130000D7800080D7800080D7800080D7800088B
:100140000D7800080D7800080D7800080D7800087B
:100150000D7800080D7800080D7800080D7800086B
:100160000D7800080D7800080D7800080D7800085B
:100170000D7800080D7800080D78000800000000D8
:100180000D7800080D7800080D7800080D7800083B
:10019000554100080D7800080D7800080D7800081A
:0C01A00000000000000000000D780008C6
:1001AC0010B5054C237833B9044B13B10448AFF3A5
:1001BC0000800123237010BD1000002000000000FF
:1001CC00B078000808B5034B1BB103490348AFF3E3
:1001DC00008008BD0000000014000020B07800086A
:1001EC0053B94AB9002908BF00281CBF4FF0FF3192
:1001FC004FF0FF3000F072B9ADF1080C6DE904CE90
:10020C0000F006F8DDF804E0DDE9022304B07047E5
:10021C002DE9F047089E04468846002B4BD18A42B4
:10022C00154667D9B2FA82F24AB1C2F1200701FA37
:10023C0002F320FA07F7954047EA030894404FEA87
:10024C00154E230CB8FBFEF71FFA85FC0EFB178826
:10025C0043EA084307FB0CF1994209D9EB1807F163
:10026C00FF3080F01B81994240F21881023F2B44F1
:10027C005B1AA4B2B3FBFEF00EFB103344EA03444A
:10028C0000FB0CFCA44509D92C1900F1FF3380F0BC
:10029C000781A44540F2048102382C4440EA07400F
:1002AC00A4EB0C0400271EB1D4400023C6E9004384
:1002BC003946BDE8F0878B4209D9002E00F0EB805F
:1002CC000027C6E9000138463946BDE8F087B3FA85
:1002DC0083F7002F47D18B4202D3824200F2FA807F
:1002EC00841A61EB030301209846002EE0D0C6E986
:1002FC000048DDE702B9FFDEB2FA82F2002A40F0D4
:10030C008F80491B4FEA154E1FFA85F80127B1FB68
:10031C00FEFC230C0EFB1C1143EA014308FB0CF101
:10032C00994207D9EB180CF1FF3002D2994200F236
:10033C00CD808446591AA3B2B1FBFEF00EFB10140B
:10034C0043EA044408FB00F8A04507D92C1900F136
:10035C00FF3302D2A04500F2B6801846A4EB080485
:10036C0040EA0C409FE7C7F1200CBB4022FA0CFE80
:10037C004EEA030E01FA07F420FA0CF521FA0CF3FD
:10038C004FEA1E482543B3FBF8F92C0C08FB193334
:10039C001FFA8EFA44EA034309FB0AF49C4202FA60
:1003AC0007F200FA07F10BD91EEB030309F1FF303A
:1003BC0080F087809C4240F28480A9F1020973444A
:1003CC001B1BADB2B3FBF8F008FB103345EA03443A
:1003DC0000FB0AFAA24508D91EEB040400F1FF3316
:1003EC006BD2A24569D90238744440EA0940A0FB9B
:1003FC000289A4EB0A044C45C2464B4654D351D057
:10040C00002E69D0B1EB0A0564EB030404FA0CFC72
:10041C00FD40FC404CEA0505C6E90054002747E7BF
:10042C00C2F1200320FA03F7954001FA02F021FAF9
:10043C0003F34FEA154E3843010CB3FBFEF71FFADA
:10044C0085F80EFB173341EA034107FB08F38B4297
:10045C0004FA02F407D9691807F1FF3C2FD28B423A
:10046C002DD9023F2944CB1A81B2B3FBFEF00EFB0F
:10047C00103341EA034100FB08F38B4207D969189A
:10048C0000F1FF3C17D28B4215D902382944C91A06
:10049C0040EA07473BE73746304609E70746E7E6B9
:1004AC001846FBE64145ABD2B8EB020A69EB0E02EB
:1004BC0001381346A4E76046E9E7184695E7674616
:1004CC00D1E781467CE702382C4447E7ACF1020CBB
:1004DC002B442FE7384608E73746E9E6704700BF5C
:1004EC00B1B14B1E9BB2013310B40B4CC1184FF67B
:1004FC00FF7310F8012B82EA1322884234F8122081
:10050C0082EA03239BB2F4D118465DF8044B704782
:10051C004FF6FF7318467047C8780008B1F5005FB6
:10052C0000D97047F8B53E4F3E4C064638460D464E
:10053C0006F024FF3A68DFF80CC1D36823F00403FB
:10054C003146D36001272A4620468CF8007007F00C
:10055C007DF93548354B02680026566231461E60DF
:10056C0006F024F83A460821314804F0B9FE324628
:10057C004FF480712E4804F0B3FE55B12046621939
:10058C00037893FAA3F36FEA136300F8013B9042EC
:10059C00F6D1284C636844F6FF2293422BD0B3F576
:1005AC00964F24D34AF6C772934203D04EF65F227D
:1005BC0093422ED105EB85021F49236805EB4202BD
:1005CC00A1FB0212520A02F57A72E260DA62002290
:1005DC005A621A69174822F001021A6105F05EFF8F
:1005EC002A4610491548BDE8F84006F03FBE44F2D3
:1005FC004F6293420DD1104923686E2202FB05F223
:10060C00A1FB021242F2107101EB5222E260DA629B
:10061C00DDE79F210A4802F0CBFA2368D7E700BF39
:10062C00D8840020B8620020188500202C000020FF
:10063C0000180240208300205917B7D1D485002020
:10064C00E87B00080000002084B010B40DF1040C0D
:10065C008CE80F00C3685DF8044B43F01003C360D3
:10066C0004B0704710B5054C204606F087FE226892
:10067C00D36823F00403D36010BD00BFD8840020DE
:10068C00084809490268D36810B443F00403074CC6
:10069C00D360002323604FF400525DF8044B06F046
:1006AC0021BE00BFD8840020B84200202C000020BE
:1006BC00014B1878704700BF0000002010B5054CA6
:1006CC00204605F0D3FE2268136923F00103136161
:1006DC0010BD00BF9885002038B5184D2B680C2B29
:1006EC001CD9174C204606F049FE22681549D368E0
:1006FC002C6823F004030520D36008705CB1124908
:10070C0000228B5C93FAA3F36FEA1363501C8B5497
:10071C0082B29442F5D801232B7138BD08480A499E
:10072C000268D36843F00403D36000232B604FF4BA
:10073C000052BDE8384006F0D5BD00BF2C000020AB
:10074C00D884002000000020B842002038B514489E
:10075C00144C154D05F08AFE0021144805F04AFF93
:10076C0020460022082104F0BBFD204601224FF454
:10077C00807104F0B5FD0E480E4C06F04BFA0E4895
:10078C000E490268D36843F00403D36005220023AA
:10079C002A7023604FF40052BDE8384006F0A2BD29
:1007AC002083002000180240000000201885002043
:1007BC00D48500202C000020D8840020B8420020D2
:1007CC00114B1A68D20600D4704730B583B000259F
:1007DC000195019A0D4C1A6801925B6801932046B1
:1007EC0005F044FE23681A6922F001021A615D6269
:1007FC005D621A69204622F001021A6103B0BDE85D
:10080C00304005F04BBE00BF001001409885002021
:10081C0038B50268164B9A4200D038BD154805F021
:10082C0025FE4FF47A6400BF013CFCD121461248EE
:10083C0005F0E0FE114B12482246052508211D70DB
:10084C0004F04EFD01224FF480710D4804F048FD78
:10085C000C480D4B02681C60D3680C4943F0040330
:10086C00D3604FF40052BDE8384006F03BBD00BFEA
:10087C000044004020830020188500200000002048
:10088C0000180240D88400202C000020B842002020
:10089C0003683D4A934270B544D03C4A934200D021
:1008AC0070BD3B483B4C05F0E1FD00213A4805F09A
:1008BC00A1FE112003F010FD262003F00DFD2046B3
:1008CC0006F0C0FC354B1A6A42F400321A621A6AFE
:1008DC0022F400321A6201F08BFE6168204601F0AE
:1008EC0031FC262003F0ECFC112003F0E9FC002283
:1008FC0008212B482B4C04F0F3FC01224FF480719F
:10090C00274804F0EDFC284828490268D36843F0D6
:10091C000403D360002323604FF40052BDE8704001
:10092C0006F0E0BC224D204C2B6800265E62284667
:10093C0005F09CFD2A68136923F0010313613A202A
:10094C0003F0CAFC252003F0C7FC204606F07AFC15
:10095C0001F034FE6168204601F0F4FB252003F021
:10096C00AFFC3A2003F0ACFC22680E49D3680E6051
:10097C0043F004032046D3600C494FF40052BDE809
:10098C00704006F0AFBC00BF0010014000440040B6
:10099C0020830020D48500201885002000380240D8
:1009AC00001802402C000020D8840020B8420020FF
:1009BC009885002002682A4B9A4200D070472DE996
:1009CC00F041DFF8B480274FD8F80030264D274E81
:1009DC0000245C62404603233B7005F047FDD8F8C9
:1009EC00002023491369096823F0010313614B6844
:1009FC002846C3F50053336006F0C0FC2B68316801
:100A0C00DA680C2922F00402DA600CD8DA68346057
:100A1C0042F004022846DA6016494FF40052BDE851
:100A2C00F04106F05FBC284606F0A8FC2A68356841
:100A3C00D36823F00403D36005233B705DB10D49EB
:100A4C0022468B5C93FAA3F36FEA1363501C8B540E
:100A5C0082B29542F5D801233371BDE8F08100BF15
:100A6C000010014000000020D88400202C00002041
:100A7C00D8830020B8420020988500202DE9F04F43
:100A8C00854C864D42F20C068E42914685B032461C
:100A9C0028BF0A4601462046984606F0E2FEA27898
:100AAC00E0782A7100265C2A85F8078085F8069084
:100ABC0068712E602E8100F0DA800AD9E02A55D0B8
:100ACC00EA2A00F0CB80CB2A00F0868005B0BDE886
:100ADC00F08F0A2A00F0B1802B2AF7D10821374673
:100AEC0001234FF0150A6E4E29811421CDE9021A0B
:100AFC00C4F80B300197BC46BE463B46C4F80F60A9
:100B0C004FF0130A12214FF00C0B002669F3070665
:100B1C0068F30F2662F3174660F31F660122A37178
:100B2C006048019B6372227184F805B084F807E079
:100B3C0084F808C0A7722660FFF7D2FC029A04F86A
:100B4C000A00030AA354039B2B824FF4AF7300BF1C
:100B5C00013B9BB2002BFAD1298A4F480E930522F8
:100B6C00022305B0BDE8F04F02F0DCBFD4F80770EB
:100B7C00EF604FF47062314604F20B1006F08AFEFF
:100B8C003A0A80321203334604F10B0002F0CAF821
:100B9C002A89EF682F60131D02F10B0A02F10A017A
:100BAC000D3292B21FFA8AFA0AF101000392C7F3CE
:100BBC00074202905FFA83FB5FFA87FEC7F3072CAC
:100BCC000192C3F3072389B23F0E95F8069095F86E
:100BDC0007802A79687998E780214FF4853001F0F5
:100BEC00E9F901F0E7FFB5F808C02F6895F8069011
:100BFC0095F807802A7968790CF10B0A1FFA8AFAA2
:100C0C000CF104030CF10A010AF101060CF10D0CB4
:100C1C0002961FFA8CF60396C7F3074601964FF01F
:100C2C0001065FFA83FB5FFA87FEC7F3072CC3F359
:100C3C00072389B23F0EAE7267E71B4B01961E70FD
:100C4C003746B446B64633460C210D26CDE902167E
:100C5C004FF00B0A0A214FF0040B56E713493746A5
:100C6C0001260197BC46BE463B460E70ECE70121BF
:100C7C00AB7A29814FF00E0B0D21CDE9021BE372EB
:100C8C0037460196B446B64633464FF00C0A0B2154
:100C9C004FF0050B39E700BF48000020340000205E
:100CAC00CAE7020049000020010000209822002021
:100CBC00014B9872704700BF340000202DE9F041C1
:100CCC00164680460F4603F0FFFF032E0CD9A6F103
:100CDC000C03032B08D9042E29D0102E14BF4FF46B
:100CEC0000324FF4803201E04FF48042731E114DFC
:100CFC0013443744C5E9003632460AE058F824203C
:100D0C0003F04CFF78B9D5E9003204329A426A609C
:100D1C0009D2931BBA424FEA930411464FF00003D9
:100D2C004FF00200EAD3BDE8F04103F0E1BF4FF40D
:100D3C008032DBE7542000202DE9F04F0D468FB0B8
:100D4C00044603F0C1FF05F17843B3F5804FC0F0C2
:100D5C00DE81A3F58042B2F5804FC0F0F380A3F59D
:100D6C000042B2F5804FC0F03682A3F54043B3F594
:100D7C00804FC0F0FE8105F1774303F57F02B2F599
:100D8C00803FC0F089826E4A03F57E01914240F2A9
:100D9C00B58203F57C01914240F24C8203F57A0155
:100DAC00914240F2E78203F57801914240F21583BB
:100DBC0003F57601914240F2418303F574019142AF
:100DCC0040F26F8303F57201914240F29E83A5F1CC
:100DDC000161B1F5804FC0F0CD83A1F58040B0F535
:100DEC00804FC0F0FE83A1F50040B0F5804FC0F0FD
:100DFC002D84A1F54041B1F5804FC0F05D8403F521
:100E0C006F01B1F5803FC0F08E8403F56E01914205
:100E1C0040F2BF8403F56C01914240F2F48403F577
:100E2C006A01914240F22C8503F56801914240F22F
:100E3C00648503F56601914240F29D8503F56403D8
:100E4C0093428CBF6FF00D036FF00C0301938CBFBA
:100E5C006FF00B036FF00A0302938CBF6FF0090362
:100E6C006FF0080303938CBF0123022305938CBFFF
:100E7C000023012304938CBF4FF0FF330023069310
:100E8C008CBF6FF001034FF0FF3307938CBF6FF0F3
:100E9C0002036FF0010308938CBF6FF003036FF034
:100EAC00020309938CBF6FF004036FF003030A93E2
:100EBC008CBF6FF005036FF004030B938CBF6FF0C6
:100ECC0006036FF005030C938CBF6FF007036FF0F4
:100EDC0006030D938BBF6FF014006FF013006FF0CF
:100EEC00130C6FF0120C8BBF6FF012066FF0110623
:100EFC006FF011096FF010098BBF6FF0100E6FF0CF
:100F0C000F0E6FF00F086FF00E088BBF6FF00E0B0B
:100F1C006FF00D0B6FF00C016FF00B018BBF6FF0CE
:100F2C000A0A6FF0090A6FF008076FF007078BBF0A
:100F3C006FF015036FF01403172216222FE000BF79
:100F4C00FFFF010008234FF00A0A01930C23CDE99F
:100F5C0002A317271623CDE9043715271423CDE94F
:100F6C00067313271223CDE9087311271023CDE93B
:100F7C000A7301200F270E23CDE90C7302464FF0A4
:100F8C00020C03264FF004094FF0050E4FF0060833
:100F9C004FF0070B09214FF00B0A0D2700232C44AF
:100FAC0004F17845B5F5804F7DD3A5F58043B3F5B5
:100FBC00804FC0F0DA80A5F50043B3F5804FC0F048
:100FCC000881A5F54045B5F5804FC0F0D08004F1FF
:100FDC00774303F57F00B0F5803FC0F08D81E24888
:100FEC0003F57E05854240F2BA8103F57C05854206
:100FFC0040F2508103F57A05854240F2B28103F547
:10100C007805854240F2E78103F57605854240F28A
:10101C004682054603F57400A84240F2748203F53B
:10102C007200A84240F2A482A4F10164B4F5804F8E
:10103C00C0F0D382A4F58040B0F5804FC0F0CF82D1
:10104C00A4F50040B0F5804FC0F0FE82A4F54044FA
:10105C00B4F5804FC0F02E8303F56F01B1F5803FDE
:10106C00C0F05F8303F56E01A94240F2CA8303F519
:10107C006C01A94240F2008403F56A01A94240F2D6
:10108C00FD8303F56800A84240F2348403F5660042
:10109C00A84240F26D84DDE9044003F56403AB42E1
:1010AC0098BF20460346B14C0026022504F11C01D2
:1010BC0004F1080022616361A660A56103F050FE93
:1010CC0000BBAB4B1A6822F480621A601A6822F4D7
:1010DC0000721A601A6842F480521A601A6822F47C
:1010EC0080521A601A6842F400621A601A6822F47C
:1010FC0000621A601A6842F400721A601A6842F4AC
:10110C0080621A600FB0BDE8F04F03F0F1BD092307
:10111C004FF00B0A01930D23CDE902A318221723DC
:10112C00CDE9043216271523CDE9067314221323B7
:10113C00CDE9082312271123CDE90A7310220F23BE
:10114C00CDE90C2302204FF0030C04264FF00509C7
:10115C004FF0060E4FF007084FF0080B0A214FF026
:10116C000C0A0E270123002219E703469BE733469E
:10117C0099E706234FF0080A01930A23CDE902A34D
:10118C0015271423CDE9043713271223CDE9067351
:10119C0011271023CDE908730F270E23CDE90A730D
:1011AC004FF0030E0D270C23CDE90C7372464FF054
:1011BC00FF304FF0000C01264FF002094FF00408ED
:1011CC004FF0050B07214FF0090A0B276FF00103B5
:1011DC00E5E6634667E707234FF0090A01930B2303
:1011EC00CDE902A316271523CDE9043714271323C1
:1011FC00CDE9067312271123CDE9087310270F23AD
:10120C00CDE90A7302260E270D23CDE90C73324665
:10121C0000204FF0010C4FF003094FF0040E4FF07B
:10122C0005084FF0060B08214FF00A0A0C274FF067
:10123C00FF33B4E60323052701930723CDE902739B
:10124C0011231227CDE9043710270F23CDE906739C
:10125C000E270D23CDE908730C270B23CDE90A7358
:10126C004FF0060A0A270923CDE90C7352466FF09A
:10127C0003006FF0020C6FF001064FF0FF394FF0D6
:10128C00000E4FF001084FF0020B042108276FF0FD
:10129C00040384E6434606E705234FF0070A01934F
:1012AC000923CDE902A314271323CDE90437122710
:1012BC001123CDE9067310270F23CDE908730E27F0
:1012CC000D23CDE90A734FF0040B0C270B23CDE94A
:1012DC000C735A466FF001004FF0FF3C00264FF0A4
:1012EC0001094FF0020E4FF0030806214FF0080AD7
:1012FC000A276FF0020352E64B46D4E64FF0040A7D
:10130C000623CDE901A30823132703931223CDE968
:10131C00043711271023CDE906730F270E23CDE9CF
:10132C0008730D270C23CDE90A7305210B270A231B
:10133C00CDE90C730A466FF002006FF0010C4FF010
:10134C00FF364FF000094FF0010E4FF002084FF03E
:10135C00030B4FF0070A09276FF003031FE67346D0
:10136C00A1E65B469FE600BFFFFF01005420002072
:10137C00003C024002234FF0040A01930623CDE9FE
:10138C0002A311230593102304930F2306930E231A
:10139C0007930D2308930C2309930B230A930A2319
:1013AC000B93092307270C9308230D933A466FF0F0
:1013BC0004006FF0030C6FF002066FF001094FF0A0
:1013CC00FF3E4FF000084FF0010B03214FF0050AD0
:1013DC006FF00503E3E5019B65E608230C931A46C1
:1013EC0001234FF0030A01930523CDE902A3102733
:1013FC000F23CDE904370E270D23CDE906730C27F7
:10140C000B23CDE908730A270923CDE90A730723B7
:10141C000D936FF005006FF0040C6FF003066FF086
:10142C0002096FF0010E4FF0FF384FF0000B022154
:10143C004FF0040A06276FF00603B0E509230A9360
:10144C001A4600234FF0020A01930423CDE902A3AC
:10145C000F270E23CDE904370D270C23CDE9067396
:10146C000B270A23CDE9087308270723CDE90B7353
:10147C0006230D936FF006006FF0050C6FF0040659
:10148C006FF003096FF0020E6FF001084FF0FF3B95
:10149C0001214FF0030A05276FF007037FE50B4688
:1014AC0001E60A2308931A464FF0FF334FF0010A66
:1014BC0001930323CDE902A30E270D23CDE90437B5
:1014CC000C270B23CDE9067309270823CDE90973F3
:1014DC0007270623CDE90B7305230D936FF0070047
:1014EC006FF0060C6FF005066FF004096FF0030E39
:1014FC006FF002086FF0010B00214FF0020A042775
:10150C006FF008034BE5029BCDE50B2306931A46BF
:10151C006FF001034FF0000A01930223CDE902A3FF
:10152C000D270C23CDE904370A270923CDE90773CE
:10153C0008270723CDE9097306270523CDE90B738B
:10154C0004230D936FF008006FF0070C6FF0060684
:10155C006FF005096FF0040E6FF003086FF0020BCB
:10156C004FF0FF314FF0010A03276FF0090316E526
:10157C00534698E50C2305931A466FF002034FF07F
:10158C00FF3701930123CDE902730B230A27049340
:10159C000923CDE9067308270723CDE9087306272D
:1015AC000523CDE90A7304270323CDE90C736FF0EF
:1015BC0009006FF0080C6FF007066FF006096FF06A
:1015CC00050E6FF004086FF0030B6FF001014FF084
:1015DC00000A02276FF00A03E1E4039B63E53B4634
:1015EC0061E56FF003036FF0010701930023CDE970
:1015FC0002730B220A23CDE9043209270823CDE913
:10160C00067307220623CDE9082305270423CDE919
:10161C000A7303220223CDE90C236FF00A006FF04A
:10162C00090C6FF008066FF007096FF0060E6FF0EB
:10163C0005086FF0040B6FF002014FF0FF3A012721
:10164C006FF00B030D22AAE40D9B2CE56FF0040345
:10165C006FF0020701934FF0FF33CDE902730A22BA
:10166C000923CDE9043208270723CDE906730622A6
:10167C000523CDE9082304270323CDE90A730222AD
:10168C000123CDE90C236FF00B006FF00A0C6FF007
:10169C0009066FF008096FF0070E6FF006086FF07F
:1016AC00050B6FF003016FF0010A00276FF00C03BC
:1016BC000E2274E40C9BF6E46FF005036FF0030745
:1016CC0001936FF00103CDE9027309220823CDE9E0
:1016DC00043207270623CDE9067305220423CDE93E
:1016EC00082303270223CDE90A7301220023CDE945
:1016FC000C236FF00C006FF00B0C6FF00A066FF000
:10170C0009096FF0080E6FF007086FF0060B6FF009
:10171C0004016FF0020A4FF0FF376FF00D030F2238
:10172C003DE40B9BBFE46FF006036FF004070193DD
:10173C006FF00203CDE9027308220723CDE90432CE
:10174C0006270523CDE9067304220323CDE90823DC
:10175C0002270123CDE90A7300224FF0FF33CDE9B4
:10176C000C236FF00D006FF00C0C6FF00B066FF08C
:10177C000A096FF0090E6FF008086FF0070B6FF095
:10178C0005016FF0030A6FF001076FF00E031022D2
:10179C0005E46FF007036FF0050701936FF0030387
:1017AC00CDE9027307220623CDE904320527042371
:1017BC00CDE9067303220223CDE908230127002378
:1017CC00CDE90A734FF0FF326FF00103CDE90C2322
:1017DC006FF00E006FF00D0C6FF00C066FF00B0934
:1017EC006FF00A0E6FF009086FF0080B6FF006012E
:1017FC006FF0040A6FF002076FF00F031122FFF76E
:10180C00CEBB0A9B4FE46FF008036FF00607019301
:10181C006FF00403CDE9027306220523CDE90432EF
:10182C0004270323CDE9067302220123CDE9082303
:10183C0000274FF0FF33CDE90A736FF001026FF010
:10184C000203CDE90C236FF00F006FF00E0C6FF05C
:10185C000D066FF00C096FF00B0E6FF00A086FF0AD
:10186C00090B6FF007016FF0050A6FF003076FF0BB
:10187C0010031222FFF793BB099B14E4089B12E49C
:10188C006FF009036FF0070701936FF00503CDE9C3
:10189C00027305220423CDE9043203270223CDE988
:1018AC00067301220023CDE908234FF0FF376FF0B8
:1018BC000103CDE90A736FF002026FF00303CDE967
:1018CC000C236FF010006FF00F0C6FF00E066FF022
:1018DC000D096FF00C0E6FF00B086FF00A0B6FF028
:1018EC0008016FF0060A6FF004076FF01103132262
:1018FC00FFF755BB079BFFF7D6BB6FF00A036FF0E2
:10190C00080A01936FF00603CDE902A30422032316
:10191C00CDE9043202270123CDE9067300224FF0F2
:10192C00FF33CDE908236FF001076FF00203CDE917
:10193C000A736FF003026FF00403CDE90C236FF010
:10194C0011006FF0100C6FF00F066FF00E096FF0B6
:10195C000D0E6FF00C086FF00B0B6FF009016FF0B0
:10196C00070A6FF005076FF012031422FFF717BB7D
:10197C00069BFFF798BB6FF00B036FF00902019306
:10198C006FF00703CDE9022303270223CDE90437C7
:10199C0001220023CDE906234FF0FF376FF001033E
:1019AC00CDE908736FF002026FF00303CDE90A234F
:1019BC006FF004076FF00503CDE90C736FF01200A4
:1019CC006FF0110C6FF010066FF00F096FF00E0E28
:1019DC006FF00D086FF00C0B6FF00A016FF0080A36
:1019EC006FF006076FF013031522FFF7D8BA00BF8C
:1019FC0011448A420BD230B413469C1A1D68A408B9
:101A0C0004338B4240F82450F7D330BC70477047F6
:101A1C00154B1A68D20710B403D41A6842F00102AD
:101A2C001A60431C1149104B0C681A6818BF01301E
:101A3C00D20703D41A6842F001021A600A4B08E07C
:101A4C001A6842F001021A600A68121B904207D908
:101A5C0000BF1A68D207F3D50A68121B8242F7D36B
:101A6C005DF8044B704700BF10E000E018AB00209D
:101A7C00054B1A68D20703D41A6842F001021A60A7
:101A8C00024B1868704700BF10E000E018AB002054
:101A9C002DE9F04F2D4C237883B064250BB908E069
:101AAC003DB10120FFF7B4FF2378013DADB2002B0F
:101ABC00F6D1DFF8A480DFF8A4B0254E08F5867ABD
:101ACC000B254FF0000903234FF0050C00224FF4B7
:101ADC00005158462370A4F804C003F001FCF368CD
:101AEC002279C4F808819BB2ADF80630BDF80630F7
:101AFC007368C4F80CA143F0400373602378F26060
:101B0C000222C4F81892C4F8142253B1642700E0DE
:101B1C003FB10120FFF77CFF22787B1E9FB2002A89
:101B2C00F6D10C4B1B78DB0706D5013DADB21DB1D0
:101B3C000120FFF76DFFC6E7064B187800F0010097
:101B4C0080F0010003B0BDE8F08F00BF74200020CE
:101B5C0000340140BC8200207820002000080240A4
:101B6C00464A9368DB0719D5F0B5454C2178D4F873
:101B7C001832062983B012D0D4F80C11D268CA548A
:101B8C00D4F8142201339342C4F8183210D2D4F88A
:101B9C0008113A4ACB5CD36003B0F0BD7047032BFD
:101BAC00D168EDD9D4F80C211A4402F8041CE7E7EB
:101BBC00324D34486B6823F040036B6001224FF4C4
:101BCC00005103F08DFB2378032B07D0042B2FD06F
:101BDC00012B08D00023237003B0F0BD2A4B94F8DE
:101BEC0011211A70F6E7284A264817782371022625
:101BFC0000224FF400516771267003F071FBEA6804
:101C0C00C4F8146292B2ADF80420BDF804201F4B46
:101C1C006A682179C4F8083142F0400203F58673F2
:101C2C0000206A60C4F80C31C4F81802E960B3E70C
:101C3C000220052300224FF400512071114823701B
:101C4C0003F04EFBE968B4F81C22104BC4F80831C1
:101C5C0089B2ADF80610BDF806106968207941F01C
:101C6C0040016960043203F586730021C4F8142224
:101C7C00C4F80C31C4F81812E8608DE70034014048
:101C8C007420002000080240BC8200207820002034
:101C9C002DE9F04F0E4621F0FF01891B8BB001F5A9
:101CAC00807595420491174602900593C6F3074A36
:101CBC00C6F307295FFA86F842D3BFB28F4C9B4616
:101CCC00FFF7E6FEB7F5807F28BF4FF480773A46E2
:101CDC0006230299A4F81C7204F10800237184F8FD
:101CEC0005A084F8069084F8078005F0BAFD04235B
:101CFC0000224FF400518248237003F0F1FA814B1B
:101D0C002179DA6892B2ADF82020BDF820205A680B
:101D1C00271D04F58876012542F040020020C4F806
:101D2C000871C4F80C61C4F81452C4F818025A6053
:101D3C00D9605B46002B40F0DB800BB0BDE8F08F28
:101D4C00FFF7A6FEABB26D4C029984F805A0B3F573
:101D5C00807F28BF4FF480731A464FF0060C04F1B5
:101D6C000800A4F81C3284F804C084F8069084F8A7
:101D7C00078005F076FD042300224FF400516048E3
:101D8C00237003F0ADFA5F4B2079DA6892B2ADF8AC
:101D9C002220BDF8222059687A1B039241F04001A1
:101DAC000122C4F8142259600399271D04F5887A7E
:101DBC000022B1F5807FC4F80871D860C4F80CA17A
:101DCC00C4F818225CD96FF4807001440498079110
:101DDC0006F500789946029B0192090A804406F5A3
:101DEC008075069108EB01280544A3EB060BFFF761
:101DFC004FFE4FF48073280C06211A46A4F81C32AF
:101E0C0021712B0A0BEB05016071381DE571A37173
:101E1C0005F027FD042300224FF4005138482370AD
:101E2C0003F05EFAD9F80C3001982279C4F80871E5
:101E3C009BB2ADF82630BDF82630D9F80430C4F882
:101E4C000CA105F5807543F040030121A845C4F8A9
:101E5C001802C9F80430C4F81412C9F80C20C6D101
:101E6C00049B03F50071079B23F0FF05039BA3F56F
:101E7C008072069BC3EB036302EB03230D440393B5
:101E8C00029B2B442E441D46FFF702FE039BE6717A
:101E9C00300C29469AB2A4F81C3260710623360A1B
:101EAC00381D2371A67105F0DCFC042300224FF4CD
:101EBC0000511348237003F013FA124B2079DA689F
:101ECC00C4F8087192B2ADF82420BDF824205A68E9
:101EDC00C4F80CA142F0400201255A60C4F8145217
:101EEC00D860059B0021C4F81812002B3FF425AFD5
:101EFC000BB0BDE8F04FFFF7CBBD00BF7420002046
:101F0C0000080240003401402DE9F041264D0C46FA
:101F1C0082B090461E460746FFF7BAFD210C200AF8
:101F2C004FF0030C062300226971A8714FF4005185
:101F3C001E48C5F82082EC7185F804C02B7003F0A4
:101F4C00CFF9D5F82022043203D1DEB902B0BDE8B6
:101F5C00F081174B2879D968C5F80C7189B2ADF8A6
:101F6C000610BDF806105968C5F8142241F040025D
:101F7C005A60291D0022D860C5F80811C5F818222E
:101F8C00002EE3D02B78002BE0D0642401E0002C51
:101F9C00DCD00120FFF73CFD2B78013CA4B2002BD8
:101FAC00F5D102B0BDE8F081742000200008024099
:101FBC000034014009B9002070472DE9F04F83B07F
:101FCC000F460546FFF764FD2548DFF89CB0254E0B
:101FDC00041F4FF48272FF2105F05CFC4FF00008E7
:101FEC0004F1040A04F5887901E0474535D02A0C40
:101FFC00290A4FF0060C4FF4807084F804C062710B
:10200C004FF0040C0022A171A4F81C024FF40051F3
:10201C005846E57184F800C003F062F9F268217942
:10202C00C4F808A192B2ADF80620BDF8062072687B
:10203C00C4F80C9142F0400272600023F16001225E
:10204C00C4F81832C4F81422FFF722FD08F1010875
:10205C0005F580750028C8D1002003B0BDE8F08FCD
:10206C0078200020003401400008024028B90122E9
:10207C004FF48071044803F033B900224FF480719F
:10208C00014803F02DB900BF002002400368B3F1F2
:10209C00804F03D0104A934217D0704710B50446B6
:1020AC00FEF7E0FAFEF70AFB0C4B0D4A1B680D48D5
:1020BC005B680221C3F5005303601170FEF70CFB43
:1020CC002368054A934202D010BDFEF73FBBBDE822
:1020DC001040FEF73BBB00BF00440140D8830020FA
:1020EC00548500202C00002030B587B0054604F044
:1020FC0001F9044604F00EF906A9002341F8183D35
:10210C0001A8CDE90133CDE90333059304F012F9AD
:10211C00049B03B164002B68B3F1804F02D0002004
:10212C0007B030BD054B5B683BB90548A0FB0430DC
:10213C00800AF5D0013807B030BDFEE79885002045
:10214C0089D3512738B5494A0368934204460D4652
:10215C001BD002F58062934217D004F0CBF8444BAD
:10216C00984217D1236843495A6942F400625A6174
:10217C00DA688D4242F40042DA606AD0DA6822F4FE
:10218C000042DA6048229A6038BD04F0C3F8384B3C
:10219C009842E7D01BD8384B984232D003F537031E
:1021AC0003F5D8539842EFD1236832495A6942F467
:1021BC0000625A61DA688D4242F40042DA6044D01F
:1021CC00DA6822F40042DA6043229A6038BD2B4B65
:1021DC00984222D02A4B9842D6D1236829495A6971
:1021EC008D4242F400625A6129D0224A954237D07E
:1021FC00254A9542DA682ED022F40042DA609A22FF
:10220C00E3E723685A6942F400625A61DA683021C4
:10221C0022F40042DA60996038BD236815495A6986
:10222C0042F400625A61DA688D4242F40042DA608C
:10223C000DD0DA6822F40042DA608622C5E7DA684B
:10224C0042F40042DA601022BFE71622BDE73422C6
:10225C00BBE71722B9E742F40042DA602022B4E768
:10226C00DA6842F40042DA604022AEE70010014026
:10227C0040A5AE02C0C62D0080C3C90100BD01053A
:10228C0000D8B805001BB700808D5B00002208B594
:10229C0011464FF0FF3001F0DDFF0022012130200C
:1022AC0001F0D8FF00220221542001F0D3FF0022BC
:1022BC000521112001F0CEFF002205213A2001F06A
:1022CC00C9FF00220121382001F0C4FF00220121A6
:1022DC00392001F0BFFF00220621192001F0BAFFBE
:1022EC00002204211C2001F0B5FF00220921252029
:1022FC0001F0B0FF002203212620BDE8084001F0C8
:10230C00A9BF00BF014803F013B800BF5C830020D5
:10231C002DE9F047ADF5805D82B002A84FF40022A4
:10232C00002300F029FE002844D0029D2DBA6E1E19
:10233C00B6F5FC1F3ED2654F3A68936843F0010333
:10234C009360B9460024220A8032120304F580748B
:10235C00002302A800F010FEA5424FF4807202A9DF
:10236C00484671D302F016F8A5428046EBD826F009
:10237C00FF0A0AF5807A4FEA0A12002302F50022BE
:10238C0002A800F0F9FD9DF809909DF808304FEA7D
:10239C00094949EA0369022402AB1B5D0134B4F517
:1023AC00807F49EA032945D002AB1B5D43EA090350
:1023BC00434504D00DF5805D02B0BDE8F08744497B
:1023CC00284689464FF00008FEF7B6FC00E0A04610
:1023DC004FEA182280321203002302A808F58074F9
:1023EC0000F0CAFDAC4208EB09024FF4807102A860
:1023FC0064D8FEF763FCAC42E9D34FF480753A68BD
:10240C00344F9368344CDFF8C48026F0030643F055
:10241C00010393603744042122460DEB01000C4468
:10242C00FFF7E6FA2A4602A9404601F0B3FFA7429D
:10243C00F1D1BFE74FEA0A1202F50022002302A8ED
:10244C0000F09AFD0024AFE7641B22461F4801F000
:10245C00A1FF26F0FF0AB4F5807F80460AF5807A4A
:10246C0089D002AB621C13F80490B2F5807F4FEA5E
:10247C00096915D002AB02349B5CB4F5807F49EA44
:10248C00034989D14FEA0A12002302F5002202A85F
:10249C0000F072FD9DF80830012449EA032983E716
:1024AC004FEA0A12002302F5002202A800F064FD94
:1024BC009DF80830012449EA03496DE7044A651B7D
:1024CC0029464244FEF7FAFB99E700BF68830020D7
:1024DC00FC7F0008048000080080000870B594B0F0
:1024EC0000222A4B0192186C294940F08050186444
:1024FC001B6C03F080530193019B02920B6823F435
:10250C00404343F480430B600B680F9203F4404349
:10251C0002930A2001230224102608215A22029D2C
:10252C000890042508A80B930D930C960E94129406
:10253C00CDE91012139503F04DFC00B1FEE703F04A
:10254C000BFC024600B1FEE721464FF480530F26E8
:10255C0003A8049405920396CDE9063303F02AFEF2
:10256C00044600B1FEE703F0BFFE4FF47A73B0FBF4
:10257C00F3F001F0D1FE284601F0E8FE2246214698
:10258C004FF0FF3001F066FE14B070BD0038024011
:10259C000070004008B5074B074A1A6001214FF440
:1025AC007A621846C3E9011202F09EFE00B1FEE702
:1025BC0008BD00BF5C83002000300040094B0A4A74
:1025CC0010B50421094C1A60184600225C60596150
:1025DC00C3E902221A61C3E9062204F01BFB00B115
:1025EC00FEE710BDD8840020001001406889090066
:1025FC0038B50B4B0B490C4A19604FF400550824A5
:10260C004FF400715A6018460022DD60C3E90541A1
:10261C009A601A61DA6104F087FC00B1FEE738BDFC
:10262C00D485002000440040688909002DE9F04F52
:10263C00ADB0B14D002401F0D9FDFFF74FFF0F9461
:10264C002B6BAE4843F002032B632B6B03F002039E
:10265C000F930F9B10942B6B43F008032B632B6B86
:10266C0003F008031093109B11942B6B43F004039D
:10267C002B632B6B03F004031193119B12942B6BA4
:10268C0043F001032B632B6B03F001031293129B9A
:10269C0013942B6B43F480732B632B6B03F48073B9
:1026AC001393139B14942B6B43F080032B632B6BB2
:1026BC0003F080031493149B15942B6B43F040038D
:1026CC002B632B6B03F040031593159B16942B6B0C
:1026DC0043F020032B632B6B03F020031693169B04
:1026EC0017942B6B43F010032B632B6B03F010032D
:1026FC00179322464FF40051179B02F0F1FD012273
:10270C004FF480717E4802F0EBFD01224FF4807192
:10271C007C4802F0E5FD224608217A4802F0E0FDF3
:10272C004FF0030940F6F36325A975482794022757
:10273C000526CDE9253902F0D9FB0C2325A97048D3
:10274C002996CDE92537CDE9274902F0CFFB642343
:10275C0025A96D482593CDE92674CDE9289602F07C
:10276C00C5FB01264FF4847325A96648CDE92536AF
:10277C00CDE9274402F0BAFB4022092325A963487E
:10278C0025922993CDE9267428944FF4807702F092
:10279C00ADFB25A95A4828944FF40058CDE926647E
:1027AC00259702F0A3FB25A959482894CDE9266466
:1027BC00CDF8948002F09AFB25A95048CDE92586E6
:1027CC00CDE9274902F092FB0D942A6B514B5249EB
:1027DC00C3F8289042F400122A632A6B5C6002F45E
:1027EC0000120D920D9A0E942A6BDC6042F480025A
:1027FC002A632A6B5C6102F480020E924FF0800C0B
:10280C004FF4806504220E981C621846C3E90644F6
:10281C00C3E90B441960C3F808C01D615A6201F08A
:10282C00F7FD00B1FEE7054602463146382001F0BF
:10283C0011FD382001F044FD2A4631460B2001F0F1
:10284C0009FD0B2001F03CFD2A463146102001F019
:10285C0001FD102001F034FD2A463146112001F013
:10286C00F9FC112001F02CFD2A4631463A2001F0EA
:10287C00F1FC3A2001F024FD2A463146462001F0B5
:10288C00E9FC462001F01CFD2A4631463C2001F0B3
:10289C00E1FC3C20214C01F013FD2A46314644203A
:1028AC0001F0D8FC442001F00BFDFFF787FE1C4A19
:1028BC00666047232046A560C4E904552260E360A6
:1028CC0003F05AFD00B1FEE72CA94FF4805941F8F2
:1028DC00489D204603F0D6FF00B1FEE7204603F0EA
:1028EC00EBFD034600B1FEE718A92046CDE91833ED
:1028FC0004F03CF9B0B1FEE700380240000C024095
:10290C00002002400018024000100240001C02404F
:10291C0000080240C082002010640240188500208C
:10292C000000014024230246CDE92000CDE922001D
:10293C0024901EA9602520461F931E9503F092FE3D
:10294C00034600B1FEE7CDE92500CDE92700CDE92E
:10295C00290825A920462B9304F02EF9064600B130
:10296C00FEE7854D204601F0BDF94FF08043284627
:10297C00C5E901662B60FFF7B7FBE86028462F61BD
:10298C0003F0FAFC00B1FEE725A92846CDF8949097
:10299C0003F078FF034600B1FEE728461EA9CDE9F7
:1029AC001E3304F0E3F800B1FEE7744B744A1A606E
:1029BC004AF6C77240F2E7315A6018460022C3E962
:1029CC0002211A6103F0D8FC00B1FEE76D4A6E4B90
:1029DC004FF400515162516A21F4005151621A9026
:1029EC00516C41F400515164526C02F400521A9231
:1029FC004FF405721A991A601A6842F480721A60C0
:102A0C001A6842F040021A609A689207FCD55E4B35
:102A1C009D6815F08005FBD12A46022154205B4CA1
:102A2C0001F018FC542001F04BFC4FF48056FFF7DA
:102A3C00DFFD5748E5601023256120604FF40065E9
:102A4C00E0206360666280234FF480664FF40027B9
:102A5C00A062E362256302230125A66325AA04264E
:102A6C001EA920466761A36063631E93CDE92033E2
:102A7C00CDE92533CDE92733C4E9065584F83C501C
:102A8C001F9602F05BFC00B1FEE74248424B03602C
:102A9C0001F06CFC054600B1FEE7FFF7F7FB28469A
:102AAC00FFF7E4FA284600F0EBF8204602F0E4FCCD
:102ABC0000F012FD00F038FE00F0C8F830B1FFF75E
:102ACC0027FC284600F0ACF801F014FC334E344FD0
:102ADC00DFF8D8A00120FEF7EBF806F11005304620
:102AEC004FF40052394604F0FDFB0FCD6C460FC479
:102AFC000FCD0FC495E80F0084E80F0096E80F0087
:102B0C00FDF7A2FD274C284EFEF7B2FF07F1010995
:102B1C00B846002501E023785BB99AF80030002B09
:102B2C00F9D0012000F07CF801F0E4FB2378002BB5
:102B3C00F3D03B78B12B07D02570FDF7B9FD0528F4
:102B4C00EBD1FDF79DFDE8E73368FA18033B12F86B
:102B5C0001CC12F802BC99B248464BEA0C2BFDF79B
:102B6C00BFFC5845E8D13188009505230222404628
:102B7C0000F0D8FFE0E700BF9885002020830020FC
:102B8C000044014000380240003401409884002089
:102B9C00600000A06883002000300240D884002030
:102BAC00B8420020300000202C0000209822002089
:102BBC00FEE700BF2DE9F0414FF40024002520462C
:102BCC0014F50024294645F1000500F0E5FB002D25
:102BDC0008BFB4F1804FF2D10F4FDFF840800025D1
:102BEC0017F8014F05EB0803AEB21CB19C7A003408
:102BFC0018BF01242146304600F0FCFB013521466C
:102C0C00304600F0D1FCB5F5006FE9D100F0FEFBC9
:102C1C00BDE8F04100F0DABC0D9F0020F8960020D2
:102C2C0010B5094CAA232070022120466370FDF7D1
:102C3C0057FC01236080042220464FF44071BDE80C
:102C4C001040FFF725B800BF9C22002070B50A4C3D
:102C5C0000252046012304224FF440712560FFF724
:102C6C0053F9204602216688FDF73AFC86420CBFD8
:102C7C002078284670BD00BF9C220020704700BF02
:102C8C0028B902464FF40051044802F029BB012236
:102C9C004FF40051014802F023BB00BF000C02406E
:102CAC00002908BFB0F1804F07D3012340F2FF3158
:102CBC007F20108091805380704730B4430F050BF8
:102CCC00C40C45EA015544EA413443EAC10305F01A
:102CDC007F00C4F309019BB210809180538030BCFB
:102CEC00704700BF30B50D4C0D4D83B04FF40072E2
:102CFC002046002104F0CEFDAB692360214601A8DB
:102D0C0000F038FD01AA05F11C01204600F094FEEC
:102D1C00012804BF2368AB6103B030BDF8860020E6
:102D2C00188600202DE9F04FDFF844A285B0074645
:102D3C0091469846044600F580565546214628464D
:102D4C0004F5007400F016FDA64205F10305F5D15B
:102D5C004FF4806239468148814C824E01F038FB39
:102D6C004FF40072054600212046CAF8185004F0B2
:102D7C0091FD256021467C4800F0FCFC4C46454604
:102D8C00B94600236FF04042AB4208BFA242C0F0EC
:102D9C00A480E20C42EA45324FEA547C4FEA1438E4
:102DAC0040F2FF3010404CEAC50C48EA05581FFAB7
:102DBC0080FE00EB8C2208F07F081FFA8CFC4FF091
:102DCC00000AADF80CE0ADF80AC0ADF8088086F842
:102DDC0000A0002A4CD00123DFF898B11A462046F7
:102DEC002946CDE9004517E04FEA10384FEAD04E9E
:102DFC004FEA507C48EA01584EEA413E4CEAC10C7D
:102E0C0008F07F08CEF3090E1FFA8CFC4FF0010A74
:102E1C000EEB8C27BB4220DC5A440133977A9BB2D1
:102E2C001A46002FF4D110F5002041F100010025C5
:102E3C006FF040448D4208BF8442D5D2DDE9004595
:102E4C00BAF1000F40F08280FFF718FF01233370B6
:102E5C002046294605B0BDE8F08FDDE90045BAF102
:102E6C00000F05D0ADF80AC0ADF80CE0ADF8088045
:102E7C0002A901234A463D4802F0FAFB0746C8B3B3
:102E8C00BDF80A30BDF80C0000EB832014F50024CB
:102E9C0080B24FF0000145F1000500F085FB00F019
:102EAC0095FB00236FF04042AB4208BFA242CBD34C
:102EBC00E20C42EA453240F2FF30640F002310402E
:102ECC0000EB8422002533700023D404AB426FF056
:102EDC00404208BFA242BFF45CAFFFF7CFFE4FF0F9
:102EEC00FF344FF0FF35012320462946337005B0DF
:102EFC00BDE8F08F02A901231D4A1C4802F098FD81
:102F0C000028A5D0BDF80A30BDF80C0000EB8320DA
:102F1C0014F5002480B2394645F1000500F044FB5D
:102F2C0000F054FB00236FF04042AB4208BFA242BA
:102F3C008AD3E20C42EA453240F2FF30640F104073
:102F4C0000EB8422D404377000251AE7ADF80AC0D0
:102F5C00ADF80CE0ADF8088076E700BF6883002080
:102F6C00F8860020A02200203486002098840020BF
:102F7C0018860020049F00202DE9F04F002B08BF7D
:102F8C00B2F1804F87B0824680F0C480D00C40EA0A
:102F9C00433040F2FF36550FD90C00EA060845EADB
:102FAC00C30500274FEA123B01EA07094BEA035B12
:102FBC0008EB85211FFA88F4ADB20BF07F0B0029CA
:102FCC0047D04FF0010CDFF8CCE361466FF040487E
:102FDC004FF0000940F2FF360CE084B20BF07F0B8F
:102FEC0000EB8520ADB20CF1010C1FFA8CFC844572
:102FFC0061462EDC714404EB8520897A0029F2D1DC
:10300C0012F5002243F10003D10C41EA4331009147
:10301C00D90C0191DDE9000199454FEA123B4FEAC9
:10302C00527508BF904500EA060045EAC3054BEA15
:10303C00035BD2D20CF1010C1FFA8CFC40F2FF7036
:10304C0084454FF0010540F2FF344FF07F0B614691
:10305C00D0DDC64E96F82030012B06D096F82130E4
:10306C000122022B86F820205AD14FF4806251465F
:10307C00BF48C04E01F0ACF9B569854246D0BE4C94
:10308C004FF400720021204604F004FC214605A8F0
:10309C00256000F06FFB05AA204606F11C0100F02C
:1030AC00CBFC012827D0B34D54460AF58057214656
:1030BC0005A800F05FFB2946204605AA00F0BCFCE1
:1030CC00032804F5007405F103050AD0BC42EED1C7
:1030DC004FF480625146A64801F07AF9B3698342F5
:1030EC0014D050464FF48052FF2104F0D3FB002043
:1030FC0007B0BDE8F08F2368B3619D484FF4806240
:10310C00514601F065F9B3698342CCD1012007B077
:10311C00BDE8F08F40F2FF3401254FF07F0B50E7F4
:10312C00B36B326BF16A7068DFF85CE2DFF85C82DB
:10313C00DFF85CC2914F03FB0543102801FB03B37E
:10314C0002FB01F14FF0020017BF72464246674680
:10315C004FF0004908BF4FF0E0498B4286F8210040
:10316C0033D24FF0000C716A87F800C00091716A7D
:10317C00F06AB1F5007F316B5FFA83FEC3F3072869
:10318C0001FB00F140F28280B1F5803FC0F09D80E0
:10319C00C3F3074382F800C082F800C082F800E055
:1031AC0082F80080137030233B7096F83C30012B72
:1031BC0000F0A88049465246009B714801F0FEF988
:1031CC00704A6F48002101F0CBFA012386F82130B8
:1031DC0096F821300122022B86F820203FF445AFCF
:1031EC00D6E90B02B36B7168674FD6F824E003FB8A
:1031FC00054400FB04B402FB00F26048634B644DD1
:10320C00102918BF3B464FF002010ABF05464FF08C
:10321C0000474FF0E047944286F821102FD2BEF5BC
:10322C00007FD6F828805FFA84FCC4F307203AD9D3
:10323C0000222A70D6E90B1202FB01F2B2F5803F94
:10324C005FFA8EF1CEF3072E4ED3C4F307441970F8
:10325C0083F800E083F800C018701C7030232B70CA
:10326C0096F83C30012B6DD03946424A44484346CF
:10327C0001F0A4F9434A4248002101F071FA0122FD
:10328C00002386F8212086F82030EEE6B1F5803F49
:10329C0031D3C3F3074382F800C082F800E082F810
:1032AC00008013707FE750222A70D6E90B1202FBC4
:1032BC0001F2B2F5803F11D3C4F3074400221A7017
:1032CC0083F800C018701C70C8E782F800C082F840
:1032DC0000C082F800E082F8008064E700221A70D7
:1032EC0083F800C01870B9E7197083F800E083F810
:1032FC0000C01870B2E782F800C082F800E082F8D3
:10330C00008050E7FEF7B4FBDFF86080CDF80C903E
:10331C00814605E0FEF7ACFBA0EB09000A280BD8B0
:10332C00404602F001FD4028F4D10023DDF80C905A
:10333C003B70BFF34F8F3DE796F82030012B7FF4A5
:10334C0047AF92E6FEF794FB084C814606E0FEF789
:10335C008FFBA0EB09000A283FF687AE204602F04F
:10336C00E3FC4028F3D100232B707DE798840020E8
:10337C006883002018860020F88600200000017069
:10338C00C082002040420F0000000280000002704A
:10339C0000000180049F002010B5002908BFB0F187
:1033AC00804F82B01FD2040BC20C430F44EA01546D
:1033BC0042EA413243EAC10304F07F04C2F309023A
:1033CC009BB269460A48ADF80040ADF80420ADF850
:1033DC00023002F025FC20B10021BDF8040000F001
:1033EC0009F802B010BD012340F2FF327F24E8E758
:1033FC0098840020044B1844827A8A4202D001221D
:10340C0081721A70704700BF049F00202DE9F043B1
:10341C002B4C237883B013B903B0BDE8F0830020A4
:10342C0000216A46FFF73CFC6946264802F0F8FB8F
:10343C0020B10023237003B0BDE8F083DFF888804F
:10344C006A4600200021FFF72BFC4FF4006204F1C8
:10345C000A01404604F0FAF942460123694619482C
:10346C0002F006F90028E4D1DFF8689046464D4694
:10347C0009F1180731462846033500F07BF9AF42B5
:10348C0006F50076F6D14FF480620F490F4800F034
:10349C009FFF4FF40072054600210B48C9F81850E5
:1034AC0004F0F8F908490A48C8F8005000F062F92D
:1034BC0069460123074A034802F0BAFAB9E700BF8C
:1034CC00049F002098840020AC32002068830020E8
:1034DC003486002018860020F0B585B002AA0020A2
:1034EC000021FFF7DDFB02A901232A4A2A4801F03B
:1034FC00E9FF38B9294E284802A93246012302F0C7
:10350C009BF958B1264B4FF400621846012104F088
:10351C00C1F9012200F80A2C05B0F0BD4FF400628D
:10352C001C491F4804F092F94FF4806219491D4858
:10353C0000F04EFFB3698342EED0FFF7D3FB0128B6
:10354C001ED0144C154D04F58057214601A800F0EF
:10355C0011F92946204601AA00F06EFA032804F559
:10356C00007405F10305CDD0A742EED14FF4806273
:10357C0008490C4800F02CFFB3698342C2D1CBE759
:10358C004FF480620349074800F022FFB36983427D
:10359C00D7D1C1E7AC3200209884002018860020D7
:1035AC000E9F00206883002010B4074B1A18947AE1
:1035BC008C4205D003EB10200124917244701C70D6
:1035CC005DF8044B704700BFF896002010B54B4CCB
:1035DC00237883B362780023012A237035D0A37833
:1035EC00012B3DD0E378012B45D02379012B4DD015
:1035FC006379012B55D0A379012B5DD0E379012B95
:10360C0065D0237A012B6DD0637A012B14D04FF443
:10361C0000613B48FCF764FF0023A4F80A0802226F
:10362C004FF490513748FEF733FB374A0023536071
:10363C00C4F80130137210BD00234FF480724FF4A4
:10364C0090513048FEF724FBE1E74FF480724FF4C1
:10365C00206104F10A00FEF71BFBA378012BC1D1FA
:10366C0000234FF480724FF430612848FEF710FBB2
:10367C00E378012BB9D100234FF480724FF44061F1
:10368C002348FEF705FB2379012BB1D100234FF41E
:10369C0080724FF450611F48FEF7FAFA6379012BE0
:1036AC00A9D100234FF480724FF460611A48FEF7E1
:1036BC00EFFAA379012BA1D100234FF480724FF4C0
:1036CC0070611648FEF7E4FAE379012B99D10023D7
:1036DC004FF480724FF480511148FEF7D9FA237AD7
:1036EC00012B91D100234FF480724FF488510D4877
:1036FC00FEF7CEFA637A012B89D19DE7F89600206C
:10370C0002970020029F0020F996002002980020CA
:10371C0002990020029A0020029B0020029C0020AB
:10372C00029D0020029E002070B5114C0123204602
:10373C0040F602024FF42061FEF7E6FB20464FF400
:10374C000061B4F80068FCF7CBFE86420FD04FF452
:10375C0000620121204604F09DF84FF0013344F83B
:10376C00053C44F8093C04F8013C04F80A3C70BDE3
:10377C00029700202DE9F04F024691B000230790EC
:10378C0004391846937053701370CDE902330193CA
:10379C009C461D4699461F469A469B469E46049358
:1037AC0098461E4605930BE0059C520684EA0304DA
:1037BC0005942CD5029A01305A40802802922CD0C4
:1037CC0051F8043FC2B2D4074CBF88EA03085E40EC
:1037DC0094075DBF049C5C4004948EEA030E54076E
:1037EC004CBF8AEA030A8BEA030B14074CBF89EA25
:1037FC0003095F40D4064CBF8CEA030C5D40940671
:10380C00D2D4019C520684EA03040194D2D4039AC4
:10381C0001305A4080280392D2D1059C019B84EA46
:10382C000301CAB2C1F3072384EA144406928BEA5B
:10383C001B4B5A4084EA142405928BEA1B2B7D4ABD
:10384C0004F0FF04080E0BF0FF0B145D12F80BB024
:10385C000A944340059CD35CCDF824B0C1F30741D6
:10386C008AEA1A4A81EA000B8AEA1A2A069808930D
:10387C0087EA1747135D0AF0FF0A87EA172789EAD8
:10388C001949414007F0FF07039812F80AA0D75DC9
:10389C00CDF82CA089EA192986EA16469B0085EA00
:1038AC00154509F0FF0986EA162685EA152580EAF2
:1038BC00104A06F0FF0602980293089B12F8099032
:1038CC000C9705F0FF07515C965DCDF834905B00CA
:1038DC0012F80B90019D03910193089680EA104415
:1038EC000498CDF81090D75D099B0E9703F0010753
:1038FC000B9B05995E008CEA1C4C029B8CEA1C2CE1
:10390C0085EA15450CF0FF0C03F004030293CDF887
:10391C003CC00A9B85EA152C019D8AEA1A2A8EEA7C
:10392C001E4E47EAC31705F002090C9B81EA0B05F2
:10393C000CF0FF0C0AF0FF0106F002068EEA1E2EB8
:10394C00CDF814C00EF0FF0E47EA060C88EA1848B2
:10395C000D9ECDF818E080EA1040515C0F9F01914C
:10396C004FEA830E88EA1828029B0599CDF808C007
:10397C0084EA142480EA102008F0FF084FEAC60CF1
:10398C0004F0FF04069ED75D12F806B0555D12F8E0
:10399C000860145D00F0FF0049EA0309039B105C0A
:1039AC00525C029903F0010A0EF0040E049B41EAEA
:1039BC000E0E0899DB0049EA0A0903F008034FEAE6
:1039CC00011A0E9949EA030343EACB194FEA01188D
:1039DC000AF0100A019B0CF0080C76014EEA0C0C54
:1039EC0008F0100806F020064FEA821E7F0149EA13
:1039FC000A026D0080014CEA080C07F0200725F044
:103A0C00030500F04000324303F00103640002435D
:103A1C004CEA0701079804F002040EF0400E2B4309
:103A2C0041EA0E01234341700270837011B0BDE86E
:103A3C00F08F00BFC87A00082DE9F0414B780E7862
:103A4C0092F800E0577895788C788EEA06065F40FD
:103A5C0082B0654046EA07032B438DF804608DF86D
:103A6C0005708DF8065018D00DF1040C0DF10708F7
:103A7C0000241CF8013B33B113F0010F1CBF0134BF
:103A8C00E4B25B08F8D1C445F3D10C2C09D0012C5D
:103A9C003DD0032002B0BDE8F081184602B0BDE86D
:103AAC00F081F900BA0002F0200201F0100107F0D9
:103ABC008004B308114321437A0003F00203C6F3D8
:103ACC004004F7081C4307F00407330902F04002D6
:103ADC00EE010A4306F4807644EA070103F008037A
:103AEC000B43324329091A4301F002046B09C5F355
:103AFC00C001214303F00403845C1943012303FA3E
:103B0C0001F161408154184602B0BDE8F08181F8A2
:103B1C0000E053784B7093788B70022002B0BDE8B4
:103B2C00F08100BFB1F5005F20D8F0B4104E114FFA
:103B3C00367890F800C087F800C00C4605465EB198
:103B4C00022B0ED0052B0FD1049221462846B1230F
:103B5C004D22F0BCFCF792BF022BF3D1F0BCFCF76A
:103B6C00DDBC03784D2BF9D0F0BC7047704700BF1B
:103B7C00AC42002012A7002010B582B00024224BCA
:103B8C0000945A6C42F480425A645A6C02F480429B
:103B9C000092009A01941A6C42F080521A641B6CC9
:103BAC0003F0805301930320019B00F041FB22465C
:103BBC0021466FF00B0000F04DFB224621466FF0C2
:103BCC000A0000F047FB224621466FF0090000F086
:103BDC0041FB224621466FF0040000F03BFB2246DD
:103BEC0021466FF0030000F035FB224621466FF0B2
:103BFC00010000F02FFB224621464FF0FF3002B0AF
:103C0C00BDE8104000F026BB0038024002680B4BA8
:103C1C009A4200D0704782B000220192D3F830282B
:103C2C0042F48052C3F8302803F500631B6B03F495
:103C3C0080530193019B02B0704700BF00300240DB
:103C4C0000B50368244A934285B008D0B3F1804F85
:103C5C002AD0224A934218D005B05DF804FB204BC1
:103C6C0000220192596C41F0010159645B6C03F024
:103C7C0001030193019B0621192000F0EBFA192096
:103C8C0005B05DF804EB00F01BBB154B0022039252
:103C9C00596C41F4003159645B6C03F400330393A9
:103CAC0006211920039BE8E7002203F50E3302924C
:103CBC00196C41F0010119641B6C03F001030293B0
:103CCC0004211C20029B00F0C5FA1C2005B05DF8F5
:103CDC0004EB00F0F5BA00BF0000014000440140C5
:103CEC000038024002680B4B9A4200D0704730B546
:103CFC0087B0002301224FF48075022401A90648E5
:103D0C000592CDE90154CDE9033301F0EFF807B08A
:103D1C0030BD00BF00000140000002402DE9F0471B
:103D2C00764A0368934288B0044609D0744A934299
:103D3C0046D0744A934200F09A8008B0BDE8F087F0
:103D4C000026714B00965A6C704D714842F010026F
:103D5C005A645B6C03F010030093C023022203939C
:103D6C0001230099049205930322072303A90692C9
:103D7C00079301F0BBF86749AE604FF000624FF457
:103D8C0080632846EE60C5E90566C5E907666E6284
:103D9C00C5E900122B6100F03BFB20B14FF4977189
:103DAC005D48FEF705FF6563002209212520AC6301
:103DBC0000F050FA252000F083FA08B0BDE8F08737
:103DCC0004215648564D01F0CFF900264E4B019672
:103DDC001A6C544842F400321A641B6C059603F4B6
:103DEC000033019303A908234FF0020A4FF0030993
:103DFC004FF00708019A03930427CDF810A0CDE9E2
:103E0C00069801F073F8012303A94448039705931E
:103E1C00CDF810A0CDE9069801F068F8DFF814C1D0
:103E2C006F6240214FF000674FF480624FF4003313
:103E3C002846EE60C5E90566EE61C5E900C7A960D4
:103E4C002A612B6200F0E4FA20B140F2651132488D
:103E5C00FEF7AEFE2563002203212620AC6300F0A2
:103E6C00F9F9262000F02CFA08B0BDE8F0874021C3
:103E7C002D482E4D01F078F90026234B02965A6CF2
:103E8C00294842F020025A645B6C03F02003029331
:103E9C0040270223029ACDE9037301220323CDE9C3
:103EAC00052303A90823079301F020F82048286074
:103EBC004FF020614FF480624FF400332846AF601E
:103ECC00EE60C5E90566EE616E6269602A612B627F
:103EDC0000F09EFA60B92563002201214720AC63F3
:103EEC0000F0B8F9472000F0EBF908B0BDE8F08716
:103EFC004FF4D7710848FEF75BFEECE70010014069
:103F0C00004400400014014000380240D8830020D7
:103F1C000004024040640240FC7B000800000240A8
:103F2C0038840020000C02400008024078830020F6
:103F3C00B8640240A060024030B5344A0368934232
:103F4C0087B0044607D0324A934238D0314A934264
:103F5C0013D007B030BD02F59432C021536C2E48FB
:103F6C0023F01003536401F0FFF8606B00F0EAFAE1
:103F7C00252000F0B1F907B030BD02F59232402196
:103F8C00536C264823F02003536401F0EDF8206BAA
:103F9C0000F0D8FA472000F09FF9012403234025B4
:103FAC0001A91F48CDE90343CDE9015400F09EFF60
:103FBC0022462946194801F093F907B030BD02F5A5
:103FCC00FA321848136C23F400331364082101F0FF
:103FDC00CBF80421124801F0C7F8206B00F0B2FABC
:103FEC000425262000F078F9012403230DEB0501AC
:103FFC000B48CDE90343CDE9015400F077FF22468D
:10400C002946074801F06CF907B030BD001001409B
:10401C00004400400014014000040240000802402B
:10402C0000000240000C02402DE9F0411B4B1C68C3
:10403C0086B014B106B0BDE8F0810125184A009491
:10404C001D60936B17482B439363936B03942B4026
:10405C00009301A94DF6F3034FF0020803270C2639
:10406C00009ACDE90138CDE9047600F03FFF4FF41A
:10407C00F06301A90C480193CDF80880CDE90476D2
:10408C00039400F033FF22462946302000F0E2F87A
:10409C00302000F015F906B0BDE8F081B0420020E8
:1040AC0000380240000C024000100240704700BF74
:1040BC00FEE700BFFEE700BFFEE700BFFEE700BF64
:1040CC00704700BF704700BF704700BF08B500F0D5
:1040DC00A3F8BDE8084000F045B900BF014800F066
:1040EC003FBC00BF3884002008B5044802F094FCA3
:1040FC000348BDE8084002F08FBC00BF18850020C3
:10410C0020830020014802F087BC00BF9885002066
:10411C0008B5034803F0D6F9BDE80840FCF750BBDE
:10412C00D8840020014803F0CDB900BFD48500200D
:10413C00014801F03BB900BF98840020014800F011
:10414C000FBC00BFD8830020FDF70ABD014800F06A
:10415C0007BC00BFC08200201049114BD1F8882049
:10416C0042F4700210B4C1F888201A680D4C00207B
:10417C0042F001021A6098601A6822F0847222F4EC
:10418C0080321A605C601A684FF0006422F480225E
:10419C001A60D8608C605DF8044B704700ED00E04D
:1041AC00003802401030002470B50E4B0E4D1B68C9
:1041BC002A7806464FF47A70B0FBF2F0B3FBF0F0BD
:1041CC0000F0AAF808B90F2E01D9012070BD0446E1
:1041DC00024631464FF0FF3000F03CF86E6020464E
:1041EC0070BD00BF040000200800002008B5094B7A
:1041FC001A6842F400721A601A6842F480621A60FB
:10420C00032000F015F80020FFF7CEFFFFF7B4FCF9
:10421C00002008BD003C0240034A044B11681B7887
:10422C000B441360704700BF18AB0020080000203F
:10423C00074AD3684FF6FF010B40000243F0BF63FF
:10424C0000F4E06043F400330343D360704700BFD5
:10425C0000ED00E0184BDB68C3F3022330B4C3F16C
:10426C000705042D03F1040428BF0425062C19D9D5
:10427C00033B4FF0FF349C4022EA04044FF0FF3222
:10428C00AA4021EA020101FA03F22243120100289A
:10429C00D2B20ADB00F1604000F5614080F80023E7
:1042AC0030BC704700242346E8E7044B00F00F00B5
:1042BC0003441A7630BC704700ED00E0FCEC00E0E3
:1042CC0000F01F0101234009024A8B4042F82030C4
:1042DC00704700BF00E100E04309203300F01F00ED
:1042EC000122034902FA00F041F82300704700BF95
:1042FC0000E100E0BFF34F8F0549064BCA6802F49A
:10430C00E0621343CB60BFF34F8F00BFFDE700BFEC
:10431C0000ED00E00400FA050138B0F1807F0ED208
:10432C00084B10B4084C5860F02084F8230000228D
:10433C00072110469A6019605DF8044B7047012004
:10434C00704700BF10E000E000ED00E0044A136885
:10435C0004280CBF43F0040323F0040313607047DC
:10436C0010E000E008B5FDF7CDFF08BD78B143794A
:10437C0010B503F0FF0204462BB102220123627137
:10438C000020637110BD0271FFF740FCF5E70120BE
:10439C00704700BF0379012B17D010B402230124FE
:1043AC000471437104683AB1043901EB820251F88B
:1043BC00043F23608A42FAD10123437123685DF8DC
:1043CC00044B0022027118467047022318467047AE
:1043DC000379012B19D030B4022304684371A3680C
:1043EC0001252B430571A3603AB1043901EB82021C
:1043FC0051F8043F23609142FAD1012343712368A1
:10440C000022027130BC18467047022318467047D0
:10441C00F8B50446FDF72CFB002C54D0022223687F
:10442C0084F835201A68002122F0010284F8341037
:10443C0005461A6005E0FDF71BFB401B05283BD821
:10444C0023681A68D107F6D4D4E90126D4E90351BC
:10445C00324360691F682A43D4E906650A43024364
:10446C00216A354832432A430A43616A3840042999
:10447C0042EA000229D01A605A6922F087021143DD
:10448C00DAB22E485961103AA0FB021212092C49DB
:10449C0023F47F73895CE16523F00303032A88BF4F
:1044AC0004333F228A4001250021A36508469A6007
:1044BC00616584F83550F8BD0323202262651846E7
:1044CC0084F83530F8BD0120F8BDD4E90B01014367
:1044DC000A43A56A1A605A6945F0040122F0870262
:1044EC0011430028CCD07EB1B6F5005F16D0022D5A
:1044FC0003D9032DC4D1C201C2D501234022626568
:10450C00184684F83530F8BD012D03D0F3D3022DB5
:10451C00B6D1F0E7B0F1C07FB2D1EEE7032DAFD842
:10452C0001A252F825F000BF07450008034500081A
:10453C0007450008214500083F8010F0ABAAAAAA45
:10454C00E07B0008002831D0024690F83500C0B25C
:10455C0002282DD0136870B4D9B2164D164C1868B9
:10456C001039A5FB0151090920F00100655C1860A8
:10457C0023F47F7424F0030403294FF0000088BF58
:10458C00043421263F211860A94058609860D860F7
:10459C0018615E610023D56594651846A16053656A
:1045AC0082F8343082F8353070BC70470120704787
:1045BC00704700BFABAAAAAAE07B000870B490F8C1
:1045CC003440012C25D090F835400125AC4280F8C0
:1045DC00345018D104680226002580F835604565F2
:1045EC002568866825F48025402E256063600BBF06
:1045FC00A260A160E160E260236843F001032360E4
:10460C00002070BC7047002380F8343070BC02204E
:10461C007047022070BC7047F0B490F83440012C05
:10462C0039D090F83540866D0125AC4280F8345075
:10463C002BD104680227002580F835704565256864
:10464C00876825F48025402F256063600ABFA2602F
:10465C00A160E160C16D18BFE2603F238B40124A3C
:10466C00B3602368126843F01603A242236015D08E
:10467C00036C1BB1236843F008032360236843F0E9
:10468C00010323600020F0BC7047002380F8343015
:10469C00F0BC022070470220F0BC7047636923F025
:1046AC0080036361E4E700BF3884002070B50446E2
:1046BC00866DFDF7DDF994F83530022B06D080229B
:1046CC000023626584F83430012070BD2368216CAE
:1046DC001A6822F016021A605A6922F08002054606
:1046EC005A6131B31A6822F008021A601A6822F073
:1046FC0001021A6005E0FDF7BBF9401B05280FD835
:10470C0023681B6813F00103F5D1E16D3F228A4049
:10471C000121B260184684F8343084F8351070BD2D
:10472C00202200230320626584F8343084F835009D
:10473C0070BDA26C002AD5D1D8E700BF90F83530F7
:10474C00022B03D0802343650120704702680523A8
:10475C0080F83530136823F0010313600020704794
:10476C002DE9F84F04460F461646FDF781F994F8EB
:10477C003530022B07D080220023626584F8343058
:10478C000120BDE8F88F23681B68DD0556D48346ED
:10479C00E26D002F4DD04FF0100A0AFA02FAA56D07
:1047AC002B68002E50D0701C5ED04FF008094FF0D3
:1047BC0001081AEA030F2FD1636DDB072CD4FDF728
:1047CC0057F9A0EB0B00B04244D8E26D2B6809FA04
:1047DC0002FC042113EA0C0F08FA02F001FA02F1B0
:1047EC0007D0D4F854E04EF0010EC4F854E0C5F8EC
:1047FC0008C0034206D0D4F854C04CF0020CC4F8E4
:10480C0054C0A8600B42D4D0606D1AEA030F40F07C
:10481C0004006065A960CFD0636D13B1636DD907D7
:10482C004CD4002F60D0102303FA02F2AA600020AF
:10483C00A7E74FF0200A0AFA02FAB0E74FF48073A8
:10484C0063650120BDE8F88F1AEA030FE4D1636DAC
:10485C00D807E1D4202100220123616584F834209B
:10486C0084F8353003208CE74FF0080C0126042027
:10487C000CFA02FC964090401AEA030FCCD1636DFF
:10488C00D907C9D42B6813EA0C0F05D0616D41F020
:10489C0001016165C5F808C0334204D0616D41F077
:1048AC0002016165AE600342E6D0616D1AEA030F46
:1048BC0041F004016165A860E1D0ADE7A76DFDF79B
:1048CC00D7F894F83530022B064618D08023E26DC9
:1048DC0063653023934000210122AB60104684F8BD
:1048EC00341084F835204CE7302303FA02F201230C
:1048FC00AA60384684F8347084F8353041E7236870
:10490C00216C1A6822F016021A605A6922F0800291
:10491C005A6101B31A6822F008021A601A6822F070
:10492C0001021A6005E0FDF7A3F8801B05280BD8DF
:10493C0023681B68DB07F6D4E26D3F23934001210B
:10494C00BB6084F83510C4E7202203236265E26D56
:10495C0084F83530BDE7A26C002ADBD1DEE700BF5E
:10496C00F0B583B00023876D0193C36D3D68654935
:10497C0008229A402A4204460E6803D0016808684F
:10498C00400759D401229A402A4203D02168496930
:10499C00080674D404229A402A4203D0216809687C
:1049AC00890766D410229A402A4203D021680868ED
:1049BC0000074BD420229A402A4214D02168086860
:1049CC00C00610D5BA6094F83520052A63D00B6860
:1049DC0013F4802F0B687ED0190340F18980E36BB0
:1049EC000BB120469847636D23B3636DDA071AD574
:1049FC000523226884F835301368434923F00103FA
:104A0C00A1FB06161360B60A02E01368DB0704D597
:104A1C00019B0133B3420193F7D90022012384F89F
:104A2C00342084F83530E36C23B1204603B0BDE864
:104A3C00F040184703B0F0BD086820F0040008608F
:104A4C00BA60626D42F0010262659BE7BA600A6867
:104A5C0012F4802F0A6818D1D20503D40A6822F008
:104A6C0008020A60226C002AA4D020469047E36D0D
:104A7C00A0E7BA60626D42F00402626592E7BA6028
:104A8C00626D42F00202626584E71103EAD5A26C02
:104A9C00002AEAD18EE70A68206C22F016020A601E
:104AAC004A6922F080024A6138B30A6822F008028F
:104ABC000A603F22216D02FA03F300200122BB6041
:104ACC0084F8340084F835200029B3D0204603B094
:104ADC00BDE8F040084713F4807380D10A680120C8
:104AEC0022F010020A6084F8343084F8350076E73E
:104AFC00636C002B7FF475AF75E7A26C002AD4D1E0
:104B0C00D7E700BF04000020B5814E1B214BDA68AB
:104B1C00D00605D52049CA6910200243CA61D86065
:104B2C001C4BDA68910606D51B49CA69202042F055
:104B3C000802CA61D860174BDA68520606D51649C6
:104B4C00CA69402042F00402CA61D860114BDA688D
:104B5C00100606D51049CA69802042F00202CA61CB
:104B6C00D8600C4BDA68D10507D50B49CA694FF4EC
:104B7C00807042F00102CA61D860064BDA68920775
:104B8C0006D50549CA69022042F02002CA61D860E4
:104B9C00704700BF003C02401CAB00202DE9F84FD1
:104BAC00474F3C7E012C5DD09B4690460023012252
:104BBC008A4681463A76FB61FCF75AFF414C064621
:104BCC004CF2503504E0FCF753FF801BA8424CD844
:104BDC00E368D803F7D4E368D90744BF0123E36043
:104BEC00384BDA6812F4F97F4ED11A6922F440720C
:104BFC001A611A69B9F1000F3CD0B9F1010F49D013
:104C0C00B9F1020F52D042F440721A611A6942F0A3
:104C1C0001021A61CAF80080CAF804B00023FB61D3
:104C2C00FCF726FF274C06464CF2503504E0FCF707
:104C3C001FFF801BA8422BD8E368DA03F7D4E36884
:104C4C00DB0744BF0123E3601E4BD86810F4F970F6
:104C5C0002D0FFF75BFF01201A4A136923F001030E
:104C6C00136103E00220BDE8F88F032000233B769C
:104C7C00BDE8F88F1A6119695FFA88F841F00101F3
:104C8C0019618AF80080C9E7FFF740FF0120EDE7C2
:104C9C000320E1E742F480721A611A691FFA88F85E
:104CAC0042F001021A61AAF80080B7E742F40072E0
:104CBC001A611A6942F001021A61CAF80080ADE764
:104CCC001CAB0020003C0240064B1A69002A01DB99
:104CDC00002070470449054A59605A601869C00F92
:104CEC00704700BF003C024023016745AB89EFCD04
:104CFC00034A136943F0004313610020704700BF5F
:104D0C00003C0240144B70B500220446DA61FCF7FB
:104D1C00AFFE124D0646631C0FD1104AD368D80360
:104D2C00FCD40E4BDA68D20744BF0122DA600B4B7D
:104D3C00D86810F4F9700BD170BDEB68D903F0D5BD
:104D4C0024B1FCF795FE801BA042E4D9032070BD72
:104D5C00FFF7DCFE012070BD1CAB0020003C0240C4
:104D6C002DE9F8435F4D2B7E012B00F0A880012329
:104D7C0081464CF250300F462B76FFF7C3FF0646A8
:104D8C00002840F097804FF0FF333B60D9F800309B
:104D9C00012B41D0D9E902834344984562D2524C4D
:104DAC0031E0022B0CBF4FF400734FF440732269B7
:104DBC0022F440722261226913432361226922F09A
:104DCC00F80222612369B8F10B0F8CBF08F10401C2
:104DDC00414643F0020343EAC1032361236943F4D0
:104DEC00803323614CF25030FFF78CFF236923F0A2
:104DFC00FA032361002866D1D9E9022308F10108DE
:104E0C00134443452ED999F81030002BCFD0012BE9
:104E1C00C7D14FF48073CAE7334AD9F8040011693B
:104E2C00D9F8103021F4407111610328116952D066
:104E3C0001280CBF41F0040141F4004111612A4CDE
:104E4C0022691B0242F480329BB2134323614CF261
:104E5C005030FFF757FF236923F4004323F004037A
:104E6C0006462361204B1A6891050FD51A6822F467
:104E7C0000721A601A6842F400621A601A6822F40E
:104E8C0000621A601A6842F400721A60164B1A68B3
:104E9C0052050FD51A6822F480621A601A6842F41F
:104EAC0080521A601A6822F480521A601A6842F40E
:104EBC0080621A6000232B763046BDE8F883022608
:104ECC003046BDE8F883084BC7F800801A68910596
:104EDC000646DBD5CAE741F4004141F004011161FB
:104EEC00ADE700BF1CAB0020003C02402DE9F04FA9
:104EFC00DFF860C2DFF86082D1F800E083B00025F3
:104F0C0003E00135102D00F0A4800123AB400EEA24
:104F1C000304A342F5D14E6826F0100ABAF1020F31
:104F2C0000F09A804FEA45090322D0F800B002FA4B
:104F3C0009F2D24306F0030702EA0B0B07FA09F752
:104F4C000AF1FF3A47EA0B07BAF1010F076040F28A
:104F5C00A980C7688B683A4003FA09F31343C3600E
:104F6C00F300CED500230193D8F8443043F48043AA
:104F7C00C8F84430D8F8443025F0030202F18042DE
:104F8C0003F4804302F59C32019305F00307019B67
:104F9C00D2F80890BF000F23BB4029EA030A674BE5
:104FAC0098422ED003F58063984200F08E80644BBB
:104FBC00984200F09180634B984200F09480624BD1
:104FCC00984200F09780614B984200F0A180604BB2
:104FDC00984200F0A480DFF88491484500F091805D
:104FEC00DFF87C91484500F0A180DFF878914845C6
:104FFC000CBF4FF009094FF00A0909FA07F74AEA02
:10500C00070AC2F808A0DCF80030E243F70354BFEB
:10501C0013402343CCF80030DCF80430B70354BF02
:10502C0013402343CCF80430DCF80830F70254BFAB
:10503C0013402343CCF80830DCF80C30B60205F1F1
:10504C00010554BF13402343102DCCF80C307FF4D2
:10505C005CAF03B0BDE8F08F4FEAD50900EB8909CE
:10506C0005F00707D9F82020BF004FF00F0B0BFA03
:10507C0007FB22EA0B0A0A69BA4042EA0A02C9F89B
:10508C0020204FEA45090322D0F800A002FA09F2C9
:10509C00D24306F0030702EA0A0A07FA09F747EABD
:1050AC000A070760876807EA020ACF6807FA09F758
:1050BC0047EA0A078760D0F804A0C6F300172AEA6B
:1050CC000303AF401F43476043E74FF0010909FA60
:1050DC0007F74AEA070A94E74FF0020909FA07F7BB
:1050EC004AEA070A8DE74FF0030909FA07F74AEA7B
:1050FC00070A86E74FF0040909FA07F74AEA070A94
:10510C007FE74FF0070909FA07F74AEA070A78E739
:10511C004FF0050909FA07F74AEA070A71E74FF059
:10512C00060909FA07F74AEA070A6AE74FF008097D
:10513C0009FA07F74AEA070A63E700BF00000240D2
:10514C0000080240000C0240001002400014024013
:10515C0000180240003C014000380240001C024094
:10516C0000200240002402402DE9F04FDFF864914A
:10517C00DFF86481DFF864A1002402E00134102C14
:10518C0073D0012707FA04F333EA0102F6D14FF08A
:10519C00030E04FA07F205680EFA02F2D24324FA5F
:1051AC000EF6154000EB8606056004F00705D6F8F0
:1051BC0020B04FF00F0CAD000CFA05F52BEA0505ED
:1051CC0035628568154085604568DB431D40456048
:1051DC00C66824F0030505F18045324005F59C3581
:1051EC00C26004EA0E02AE6892000CFA02FC48455A
:1051FC000CEA06063BD050453ED02E4FB8423ED06E
:10520C002D4FB8423FD02D4FB8423FD02C4FB84213
:10521C0040D02C4FB84241D02B4FB84242D02B4FEC
:10522C00B84243D02A4FB84225D00A2707FA02F2D7
:10523C009642A3D1AA6822EA0C02AA60D8F80020F0
:10524C001A40C8F80020D8F804201A40C8F80420E6
:10525C00D8F808201A40C8F80820D8F80C200134D7
:10526C001340102CC8F80C308BD1BDE8F08F002205
:10527C00964283D1DEE7092707FA02F2F8E7022704
:10528C0007FA02F2F4E70EFA02F2F1E7042707FA42
:10529C0002F2EDE7052707FA02F2E9E7062707FA1B
:1052AC0002F2E5E7072707FA02F2E1E7082707FA17
:1052BC0002F2DDE700080240000C02400010024040
:1052CC000014024000180240001C02400020024062
:1052DC000024024000000240003C01400004024057
:1052EC0002B9090481617047E8B138B5D0E90031E1
:1052FC0082684CF6CC45044645F255501D6018604A
:10530C0059609A60FCF7B4FB054604E0FCF7B0FB6F
:10531C00401B302809D82368D8680028F6D14AF6F3
:10532C00AA221A6038BD01207047032038BD00BF87
:10533C0003684AF6AA221A600020704788B390F8D6
:10534C00213070B5154604460E4603F0FF021BB320
:10535C00211D206802F0DEF93146D4E9000202F08A
:10536C00FDF9D4E90002294602F00CFAD4E9002335
:10537C00102B08D0136A43F004031362012384F842
:10538C002130002070BD136843F004031360012327
:10539C0084F82130002070BD80F82020FEF744FEF8
:1053AC00D6E70120704700BF704700BFD0E900323C
:1053BC00102A10B5044619D05A6AD10719D45A6A62
:1053CC00900729D45A6A52073AD45B6AC3F3801304
:1053DC0003B910BD2046FFF7E7FFD4E90023102BDB
:1053EC0045D0536A23F04003536210BD5A68D0076E
:1053FC000FD52046FFF7D8FF6368102B236804D025
:10540C005A6A22F001025A62D9E75A6822F0010264
:10541C005A605A68920710D52046FFF7C5FF63689B
:10542C00102B05D023685A6A22F002025A62C9E78F
:10543C0023685A6822F002025A605A68510710D544
:10544C002046FFF7B1FF6368102B05D023685A6A1A
:10545C0022F004025A62B8E723685A6822F0040268
:10546C005A605B68C3F38013002BB2D0B2E7536869
:10547C0023F04003536010BD90F82020012A1BD06C
:10548C0090F821200121022A034680F8201013D025
:10549C0030B40A4A44680A48102C08BF0246022558
:1054AC00FF20002483F821501070204683F8204000
:1054BC0083F8211030BC7047022070470000018037
:1054CC00000001702DE9F04F054690F8200089B0DE
:1054DC0000260128079600F0B980144695F8212083
:1054EC000120022A85F8200000F0B0806868B1F82D
:1054FC0004A04F885A4ADFF86CE10988DFF868810C
:10550C00D5F82CC0DFF864911028A86B00FB07A716
:10551C004FF0020A12BF10467046C146019014BFEC
:10552C004FF0004B4FF0E04B0CFB071785F821A018
:10553C00002B48D0296B01FB0CF18F4243D2CDE9F3
:10554C00022EFB18B0460493B246019B6E6A83F898
:10555C0000A06B6AEA6AB3F5007F2B6B08F10108B7
:10556C0006FB08F6F8B2C7F3072103FB02F333D8A6
:10557C00B3F5803F35D3C7F3074389F800A089F80A
:10558C00000089F8001089F80030019A302313705C
:10559C0095F83C30012B38D0079B9E4209D9079BCC
:1055AC009BF8002004F8012B01330793079BB342AF
:1055BC00F5D3049B01379F4205D0D5E90B2303FBA0
:1055CC0002F3BB42C1D80020012385F8213085F8B5
:1055DC00200009B0BDE8F08FB3F5803F08D289F800
:1055EC0000A089F800A089F8000089F80010CCE729
:1055FC00C7F3074389F800A089F800A089F80000D8
:10560C0089F8001089F80030BFE7FCF731FA0594EF
:10561C0004466B68102BDDE9023216BF1A464FF0B8
:10562C00E0434FF000434FF0700111701B78DBB278
:10563C0013F0010201D15B060CD4FCF719FA001B24
:10564C000A28E6D9032009B0BDE8F08F022009B082
:10565C00BDE8F08F019B059C1A70BFF34F8F9BE741
:10566C000000018000000170000002700000028048
:10567C002DE9F04F044690F8200087B04FF0000C55
:10568C000128CDF814C000F0AB80154694F8212009
:10569C000120022A84F8200000F0A28062684E8863
:1056AC00B1F804A0DFF88481DFF884915E4FDFF855
:1056BC0084E10988E06A102AA26B02FB06A60CBFE3
:1056CC0042464A4602924FF0020B14BF3A467246CB
:1056DC00009214BF4FF000484FF0E04800FB061654
:1056EC0084F821B0002B72D0216B01FB00F18E42AB
:1056FC006DD2F318CDF804C00393F2460099636A97
:10570C0080224FF0000E81F800E00A700199626A65
:10571C000131019103FB01F3B2F5007FE16A226BC9
:10572C00F0B2C6F3072C02FB01F23CD9B2F5803F74
:10573C005AD2029A4FF0000E82F800E082F800E094
:10574C00107082F800C0059A934209D915F8012B04
:10575C0088F80020059A01320592059A9A42F5D3F1
:10576C00009A102313704FF0700B6368102B15BF49
:10577C003A4652464FF000434FF0E04382F800B0F7
:10578C001B78DBB2DA0701D45B0616D4FCF770F990
:10579C008146FCF76DF9A0EB09000A28E5D9032036
:1057AC0007B0BDE8F08FB2F5803F2FD2029A82F895
:1057BC0000E0107082F800C0C5E7039B01369E42E2
:1057CC0005D0D4E90B2303FB02F3B34296D8002097
:1057DC00012384F8213084F8200007B0BDE8F08F55
:1057EC00022007B0BDE8F08F02994FF0000E81F84F
:1057FC0000E081F800E0087081F800C0BFF34F8F23
:10580C00C6F307420A70BFF34F8F9CE70299C6F3A9
:10581C0007494FF0000E81F800E0087081F800C0D5
:10582C0081F800908FE700BF00000180000002703B
:10583C0000000280000001702DE9F04F054690F841
:10584C00200089B000260128079600F0E08014465D
:10585C0095F821200120022A85F8200000F0D7803D
:10586C004A88B1F804A0AF6B6868DFF8B881098882
:10587C00DFF8B4E1D5F82CC0DFF8B09107FB02A734
:10588C00674A10284FF0020A18BF90466A6A85F8DA
:10589C0021A009BFC1464FF0004BF0464FF0E04B42
:1058AC000CFB07170392002B00F0A880296B01FB5F
:1058BC000CF18F4280F0A280FB180293584BCDE97B
:1058CC00003E1346C2F30722C2460492B046AE6AAB
:1058DC0008F10108B3F5007F06FB08F65FFA87FCB8
:1058EC00C7F3072031D850238AF80030D5E90B23B1
:1058FC0003FB02F3B3F5803F65D24FF0000389F848
:10590C00003089F800C089F8000030238AF8003094
:10591C0095F83C30012B35D0079B9E4209D9079B4B
:10592C009BF8002004F8012B01330793079BB3422B
:10593C00F5D3029B01379F4260D0D5E90B2303FBC3
:10594C0002F3BB425AD96B6AC1E74FF000038AF8E5
:10595C000030D5E90B2303FB02F3B3F5803F9DF830
:10596C000C203DD2049B89F8002089F800303023AC
:10597C0089F800C089F800008AF8003095F83C30AE
:10598C00012BC9D1FCF774F8059404466B68102BF5
:10599C00DDE9003216BF1A464FF0E0434FF00043EA
:1059AC004FF0700111701B78DBB213F0010201D1C2
:1059BC005B0630D4FCF75CF8001B0A28E6D9032000
:1059CC0009B0BDE8F08FC7F307434FF0000289F828
:1059DC00002089F800C089F8000089F8003094E7AD
:1059EC0089F80020C7F30743049A89F8002089F846
:1059FC0000C089F8000089F8003086E700200123F8
:105A0C0085F8213085F8200009B0BDE8F08F022020
:105A1C0009B0BDE8F08F059C8AF800207CE700BF38
:105A2C000000018000000270000001700000028084
:105A3C002DE9F04F044690F8200089B04FF0000C8F
:105A4C000128CDF81CC000F0BB80964694F82120AC
:105A5C000120022A84F8200000F0B28065684E888C
:105A6C00B1F804A0DFF8B0810988DFF8B091E26AE0
:105A7C006748684F102DA56B05FB06A602FB0616A2
:105A8C000CBF45464D46616A02954FF0020B14BFA0
:105A9C0005463D46009514BF4FF000484FF0E048D6
:105AAC0084F821B00D460391002B00F0A780216BE8
:105ABC0001FB02F18E4280F0A180F3180593C5F32F
:105ACC0007232A460493CDF804C0824675466346E4
